:100000000C942A000C94E70B0C941A0C0C944D0CD5
:100010000C9447000C9447000C9447000C94470044
:100020000C9447000C9447000C9447000C94470034
:100030000C9447000C944F080C9447000C94470014
:100040000C9416100C9447000C9447000C94470035
:100050000C94470011241FBECFE5D8E0DEBFCDBF12
:1000600011E0A0E6B0E0E0E3FFE302C005900D92EE
:10007000AE3CB107D9F711E0AEECB1E001C01D9282
:10008000A93FB107E1F70E94FC1B0C94961F0C944A
:100090000000EF92FF920F931F937B018C0120E0F1
:1000A00030E040E05FE40E94F50388238CF0C80153
:1000B000B70120E030E040E05FE40E94C1010E940F
:1000C000B3049B01AC01205030404040504806C072
:1000D000C801B7010E94B3049B01AC01B901CA0178
:1000E0001F910F91FF90EF900895A0E0B0E0EBE733
:1000F000F0E00C945F1FDC012B01FA019C9192301F
:1001000008F439C1EB018881823008F433C194309E
:1001100069F4843009F02FC111969C91119789815F
:10012000981709F428C1A0E6B0E025C1843009F48D
:1001300021C18230A9F4923009F01DC19A01AD01AC
:1001400088E0EA010990AE01E90109929E0181501F
:10015000C1F7E201898111969C918923818308C1AD
:10016000923009F407C112962D903C901397EB0141
:100170008A819B811496AD90BD90CD90DC901797AD
:10018000EC80FD800E811F819101281B390BB90184
:1001900037FF04C066277727621B730B6032710537
:1001A0000CF061C0121613066CF537014801062EDB
:1001B00004C096948794779467940A94D2F721E0C8
:1001C00030E040E050E004C0220F331F441F551FB1
:1001D0006A95D2F721503040404050402E213F21B7
:1001E00040235123211531054105510521F021E01E
:1001F00030E040E050E079018A01E628F72808293C
:1002000019293CC0232BD1F1260E371E350146019A
:10021000062E04C096948794779467940A94D2F734
:1002200021E030E040E050E004C0220F331F441FC3
:10023000551F6A95D2F721503040404050402A2146
:100240003B214C215D21211531054105510521F04E
:1002500021E030E040E050E059016A01A628B728CB
:10026000C828D9280BC0821593052CF01C01AA249C
:10027000BB24650103C0EE24FF24870111969C91E5
:10028000D20111968C91981709F445C0992339F041
:10029000A80197012A193B094C095D0906C0A6016E
:1002A00095012E193F09400B510B57FD08C01182D3
:1002B0003382228224833583468357831DC081E0A5
:1002C00081833382228288279927DC01821B930B4A
:1002D000A40BB50B84839583A683B7830DC0220F2F
:1002E000331F441F551F24833583468357838281E0
:1002F000938101979383828324813581468157813D
:10030000DA01C9010197A109B1098F5F9F4FAF4F72
:10031000BF4328F30BC0918333822282EA0CFB1C7B
:100320000C1D1D1DE482F5820683178383E0808304
:10033000248135814681578157FF1AC0C901AA27F8
:1003400097FDA095BA2F81709070A070B0705695EF
:10035000479537952795822B932BA42BB52B848318
:100360009583A683B7838281938101969383828349
:10037000DF0101C0D201CD01CDB7DEB7E2E10C94BF
:100380007B1FA0E2B0E0E7ECF1E00C946B1F698307
:100390007A838B839C832D833E834F835887E9E048
:1003A000EE2EF12CEC0EFD1ECE010196B7010E943F
:1003B000A4068E010F5E1F4FCE010596B8010E9464
:1003C000A4068A8991E089278A8BC701B801AE010A
:1003D000475E5F4F0E9475000E94CF05A096E6E041
:1003E0000C94871FA0E2B0E0E8EFF1E00C946B1FE3
:1003F00069837A838B839C832D833E834F835887C5
:10040000F9E0EF2EF12CEC0EFD1ECE010196B701A6
:100410000E94A4068E010F5E1F4FCE010596B80103
:100420000E94A406C701B801AE01475E5F4F0E945B
:1004300075000E94CF05A096E6E00C94871FA0E20D
:10044000B0E0E5E2F2E00C945F1F69837A838B836E
:100450009C832D833E834F835887CE010196BE0136
:10046000675F7F4F0E94A406CE010596BE016F5EB6
:100470007F4F0E94A4069985923088F08989823046
:10048000C8F0943019F4823051F404C0843029F457
:10049000923081F480E690E0C6C0923049F420E0CA
:1004A0009A858A89981321E02A87CE010996BBC0D4
:1004B000823049F420E09A858A89981321E02A8BBA
:1004C000CE014196B0C02D843E844F8458886D88FB
:1004D0007E888F88988CEE24FF248701AA24BB2471
:1004E000650140E050E060E070E0E0E0F0E0C10174
:1004F00081709070892BE9F0E60CF71C081D191D1E
:100500009A01AB012A0D3B1D4C1D5D1D80E090E062
:10051000A0E0B0E0E614F7040805190520F481E036
:1005200090E0A0E0B0E0BA01A901480F591F6A1F8E
:100530007B1FAA0CBB1CCC1CDD1C97FE08C081E0F5
:1005400090E0A0E0B0E0A82AB92ACA2ADB2A3196B6
:10055000E032F10549F0660C771C881C991C569412
:10056000479437942794C3CFFA85EA892B893C892D
:100570008B859C85280F391F2E5F3F4F17C0CA01FE
:1005800081709070892B61F016950795F794E79428
:1005900080E090E0A0E0B0E8E82AF92A0A2B1B2BC3
:1005A00076956795579547952F5F3F4F77FDE7CF36
:1005B0000CC0440F551F661F771F17FD4160EE0CDE
:1005C000FF1C001F111F21503040403090E05907A0
:1005D00090E0690790E4790760F32B8F3C8FDB0193
:1005E000CA018F779070A070B07080349105A1051A
:1005F000B10561F447FD0AC0E114F10401051105DC
:1006000029F0405C5F4F6F4F7F4F40781A8EFE1786
:1006100011F081E08A8F4D8F5E8F6F8F78A383E01A
:10062000898FCE0149960E94CF05A096E2E10C94F5
:100630007B1FA8E1B0E0EFE1F3E00C94671F698352
:100640007A838B839C832D833E834F835887B9E0C5
:10065000EB2EF12CEC0EFD1ECE010196B7010E948F
:10066000A4068E010F5E1F4FCE010596B8010E94B1
:10067000A4062985223008F47EC03989323010F46E
:10068000B8017CC08A859A8989278A87243011F02D
:10069000223031F4231709F06EC060E670E06EC0BE
:1006A000343039F41D861E861F86188A1C861B86E8
:1006B00004C0323021F484E08987B7015FC02B8504
:1006C0003C858B899C89281B390B3C872B87ED84C3
:1006D000FE840F851889AD88BE88CF88D88CEA142F
:1006E000FB040C051D0540F4EE0CFF1C001F111F40
:1006F000215030403C872B8720E030E040E050E044
:1007000080E090E0A0E0B0E460E070E0EA14FB0478
:100710000C051D0540F0282B392B4A2B5B2BEA18C2
:10072000FB080C091D09B695A79597958795EE0CC2
:10073000FF1C001F111F6F5F7F4F6F31710531F775
:10074000DA01C9018F779070A070B0708034910584
:10075000A105B10561F427FD0AC0E114F10401050A
:10076000110529F0205C3F4F4F4F5F4F20782D87B8
:100770003E874F87588BBE01675F7F4FCB010E943A
:10078000CF056896EAE00C94831FA8E1B0E0EBEC9B
:10079000F3E00C946B1F69837A838B839C832D8396
:1007A0003E834F83588789E0E82EF12CEC0EFD1E26
:1007B000CE010196B7010E94A4068E010F5E1F4F65
:1007C000CE010596B8010E94A4068985823040F0CA
:1007D0008989823028F0C701B8010E941C0701C036
:1007E0008FEF6896E6E00C94871FA8E1B0E0EBEF8E
:1007F000F3E00C946B1F69837A838B839C832D8336
:100800003E834F83588789E0E82EF12CEC0EFD1EC5
:10081000CE010196B7010E94A4068E010F5E1F4F04
:10082000CE010596B8010E94A4068985823040F069
:100830008989823028F0C701B8010E941C0701C0D5
:100840008FEF6896E6E00C94871FA8E1B0E0EBE23A
:10085000F4E00C946B1F69837A838B839C832D83D4
:100860003E834F83588789E0E82EF12CEC0EFD1E65
:10087000CE010196B7010E94A4068E010F5E1F4FA4
:10088000CE010596B8010E94A4068985823040F009
:100890008989823028F0C701B8010E941C0701C075
:1008A00081E06896E6E00C94871FA8E0B0E0EBE5F5
:1008B000F4E00C94681F9B01AC0183E08983DA01AA
:1008C000C9018827B7FD83959927AA27BB27B82E8A
:1008D000211531054105510519F482E089833AC09B
:1008E0008823A9F0203080E0380780E0480780E8BE
:1008F000580729F460E070E080E09FEC30C0EE24FF
:10090000FF248701E21AF30A040B150B02C07901D8
:100910008A018EE1C82ED12CDC82CB82ED82FE8250
:100920000F831887C801B7010E9480050197181628
:10093000190684F4082E04C0EE0CFF1C001F111FC2
:100940000A94D2F7ED82FE820F831887C81AD90A5B
:10095000DC82CB82BA82CE0101960E94CF05289616
:10096000E9E00C94841FACE0B0E0E9EBF4E00C9417
:100970006F1F69837A838B839C83CE010196BE01AE
:100980006B5F7F4F0E94A4068D81823061F18230BF
:1009900050F1843021F48E81882351F12EC02F81B3
:1009A000388537FD20C06E812F3131051CF066235C
:1009B000F9F023C08EE190E0821B930B29853A85E4
:1009C0004B855C8504C056954795379527958A9544
:1009D000D2F76623B1F050954095309521953F4F61
:1009E0004F4F5F4F0EC020E030E040E050E009C0C4
:1009F0002FEF3FEF4FEF5FE704C020E030E040E033
:100A000050E8B901CA012C96E2E00C948B1FA8E0D3
:100A1000B0E0EDE0F5E00C94671F7B018C016115FF
:100A200071058105910519F482E0898360C083E036
:100A300089838EE1C82ED12CDC82CB82ED82FE82AE
:100A40000F831887C801B7010E948005FC01319708
:100A5000F7FF3BC0222733272E1B3F0B57016801AE
:100A6000022E04C0D694C794B794A7940A94D2F7E0
:100A700040E050E060E070E081E090E0A0E0B0E0B5
:100A800004C0880F991FAA1FBB1F2A95D2F7019790
:100A9000A109B1098E219F21A023B1230097A105AF
:100AA000B10521F041E050E060E070E04A295B29A7
:100AB0006C297D294D835E836F8378878EE190E07A
:100AC0008E1B9F0B9C838B8312C0309781F00E2E60
:100AD00004C0EE0CFF1C001F111F0A94D2F7ED8218
:100AE000FE820F831887CE1ADF0ADC82CB821A823D
:100AF000CE0101960E94CF052896EAE00C94831F50
:100B0000EF92FF920F931F937B018C0180E0E81618
:100B100080E0F80681E0080780E0180788F48FEF8E
:100B2000E816F1040105110531F028F088E090E0A5
:100B3000A0E0B0E017C080E090E0A0E0B0E012C01C
:100B400080E0E81680E0F80680E0080781E01807FA
:100B500028F088E190E0A0E0B0E004C080E190E0FF
:100B6000A0E0B0E020E230E040E050E0281B390B8C
:100B70004A0B5B0B04C016950795F794E7948A958A
:100B8000D2F7F701E859FF4F8081281B310941094D
:100B90005109C9011F910F91FF90EF900895DF92C5
:100BA000EF92FF920F931F93FC01E480F580068182
:100BB0001781D1808081823048F480E090E0A0E10C
:100BC000B0E0E82AF92A0A2B1B2BA5C0843009F4CF
:100BD0009FC0823021F4EE24FF24870105C0E11478
:100BE000F1040105110519F4E0E0F0E096C062811E
:100BF00073819FEF623879070CF05BC022E83FEF0A
:100C0000261B370B2A3131052CF020E030E040E084
:100C100050E02AC0B801A701022E04C0769567955E
:100C2000579547950A94D2F781E090E0A0E0B0E0B4
:100C300004C0880F991FAA1FBB1F2A95D2F70197DE
:100C4000A109B1098E219F21A023B1230097A105FD
:100C5000B10521F081E090E0A0E0B0E09A01AB01A5
:100C6000282B392B4A2B5B2BDA01C9018F77907027
:100C7000A070B07080349105A105B10539F427FF4B
:100C800009C0205C3F4F4F4F5F4F04C0215C3F4F76
:100C90004F4F5F4FE0E0F0E02030A0E03A07A0E0E7
:100CA0004A07A0E45A0710F0E1E0F0E079018A0178
:100CB00027C06038710564F5FB01E158FF4FD8018A
:100CC000C7018F779070A070B07080349105A10536
:100CD000B10539F4E7FE0DC080E490E0A0E0B0E09B
:100CE00004C08FE390E0A0E0B0E0E80EF91E0A1F18
:100CF0001B1F17FF05C016950795F794E7943196CB
:100D000087E016950795F794E7948A95D1F705C083
:100D1000EE24FF248701EFEFF0E06E2F6795662742
:100D20006795902F9F77D794DD24D7948E2F869543
:100D3000492F462B582F5D29B701CA011F910F91EA
:100D4000FF90EF90DF900895FC01DB01408151811D
:100D50002281622F6F7770E0221F2227221F93814A
:100D6000892F880F822B282F30E0991F9927991FF0
:100D700011969C93119721153105A9F5411551053F
:100D80006105710511F482E037C082E89FEF139688
:100D90009C938E9312979A01AB0167E0220F331F49
:100DA000441F551F6A95D1F783E08C930DC0220F25
:100DB000331F441F551F12968D919C9113970197D5
:100DC00013969C938E931297203080E0380780E032
:100DD000480780E4580758F314962D933D934D939C
:100DE0005C93179708952F3F310579F4411551050C
:100DF0006105710519F484E08C93089564FF03C0C4
:100E000081E08C9312C01C9210C02F573040139673
:100E10003C932E93129783E08C9387E0440F551FE9
:100E2000661F771F8A95D1F7706414964D935D9372
:100E30006D937C93179708951F93DC01FB019C91A0
:100E4000923008F447C08081823008F443C0943067
:100E500051F411961C91843099F58181682F70E0CE
:100E6000611B71093FC0843021F0923031F482302F
:100E7000B9F18181882389F12DC011961C911197B8
:100E80008230F1F081811817D9F412962D913C919E
:100E90001397828193818217930794F0281739075B
:100EA000BCF014968D919D910D90BC91A02D248144
:100EB000358146815781281739074A075B0718F49F
:100EC000112341F00AC082179307A407B50740F425
:100ED000112319F061E070E005C06FEF7FEF02C0F1
:100EE00060E070E0CB011F910895DF93CF93CDB701
:100EF000DEB7ABE2B0E0EBE2F0E080818C93A0E4FF
:100F0000B0E0E0E4F0E0808180688C93AAE2B0E099
:100F1000EAE2F0E080818C93E0E4F0E088E0808316
:100F2000A0E4B0E0E0E4F0E080818F778C93E9E228
:100F3000F0E083E38083E0E4F0E01082AFE5B0E02E
:100F4000EFE5F0E0808180688C93AAE2B0E0EAE20D
:100F5000F0E0808180688C93AAE2B0E0EAE2F0E001
:100F6000808180618C93AAE2B0E0EAE2F0E08081C7
:100F700088608C93CF91DF910895DF93CF9300D059
:100F8000CDB7DEB79A83898389819A81009731F042
:100F900089819A819093CF018093CE010F900F9019
:100FA000CF91DF910895DF93CF930F92CDB7DEB746
:100FB0008983EBE2F0E08081829586958770882FA7
:100FC00090E0817090700097A1F3ECE2F0E08981ED
:100FD00080830F90CF91DF910895DF93CF9300D05E
:100FE000CDB7DEB79A838983EBE2F0E08081881F7A
:100FF0008827881F8130C1F7ECE2F0E08081E98129
:10100000FA8180830F900F90CF91DF910895DF9345
:10101000CF9300D0CDB7DEB79A838983ECE2F0E0BE
:101020008081E981FA8180830F900F90CF91DF91C9
:101030000895DF93CF9300D00F92CDB7DEB79B8397
:101040008A831982EBE2F0E0808182958695877031
:10105000882F90E0817090700097A1F30FC0898174
:10106000282F30E08A819B81FC01E20FF31F9081E1
:1010700089818F5F8983892F0E94D3078981282FD7
:1010800030E08A819B81FC01E20FF31F808188237D
:1010900031F70F900F900F90CF91DF9108951F922D
:1010A0000F920FB60F9211242F933F934F935F939C
:1010B0006F937F938F939F93AF93BF93EF93FF9320
:1010C000DF93CF93CDB7DEB78091CE019091CF0162
:1010D000009729F0E091CE01F091CF010995CF91D1
:1010E000DF91FF91EF91BF91AF919F918F917F9190
:1010F0006F915F914F913F912F910F900FBE0F9085
:101100001F901895DF93CF9300D0CDB7DEB79A83A9
:101110008983E981FA818081813009F0F0C0E98119
:10112000FA818181813009F079C0AFE4B0E0EFE469
:10113000F0E080818E7F8C93AFE4B0E0EFE4F0E0EC
:10114000808182608C93AEE4B0E0EEE4F0E08081D8
:1011500088608C93AEE4B0E0EEE4F0E080818061E2
:101160008C93AFE4B0E0EFE4F0E08081282FE981D8
:10117000FA818281882F90E00024969587950794C4
:10118000969587950794982F802D822B8C93AFE4AA
:10119000B0E0EFE4F0E08081282FE981FA818281DC
:1011A000882F90E082959295907F9827807F98274E
:1011B000822B8C93AEE4B0E0EEE4F0E09081E98124
:1011C000FA818381892B8C93A6E4B0E0E981FA81CE
:1011D0008185928511969C938E93E981FA81848111
:1011E000882359F4EAE4F0E0A981BA8115968D913B
:1011F0009C91169791838083F7C0E981FA8184815D
:10120000813009F0F1C0E8E4F0E0A981BA811796D5
:101210008D919C91189791838083E6C0E981FA8132
:101220008181882309F0E0C0AFE4B0E0EFE4F0E0B2
:1012300080818E7F8C93AFE4B0E0EFE4F0E08081BA
:1012400082608C93AEE4B0E0EEE4F0E08081877FD2
:101250008C93AEE4B0E0EEE4F0E0808180618C93AA
:10126000AFE4B0E0EFE4F0E08081282FE981FA817B
:101270008281882F90E00024969587950794969513
:1012800087950794982F802D822B8C93AFE4B0E044
:10129000EFE4F0E08081282FE981FA818281882FB4
:1012A00090E082959295907F9827807F9827822B57
:1012B0008C93AEE4B0E0EEE4F0E09081E981FA8155
:1012C0008381892B8C93A6E4B0E0E981FA81818542
:1012D000928511969C938E93AAE4B0E0E981FA81FD
:1012E0008581968111969C938E93A8E4B0E0E98164
:1012F000FA818781908511969C938E9375C0E981C0
:10130000FA818081882309F06FC0E981FA818181A7
:10131000813099F5A3E5B0E0E3E5F0E09081E98163
:10132000FA818381892B8C93A3E5B0E0E3E5F0E0BB
:10133000808180648C93A3E5B0E0E3E5F0E08081F8
:1013400088608C93A3E5B0E0E3E5F0E08081282F8E
:10135000E981FA818281882F90E082959295907F31
:101360009827807F9827822B8C93ACE5B0E0E981A9
:10137000FA81858196818C9337C0E981FA818181D8
:10138000882391F5A3E5B0E0E3E5F0E09081E98101
:10139000FA818381892B8C93A3E5B0E0E3E5F0E04B
:1013A000808180648C93A3E5B0E0E3E5F0E0808188
:1013B000877F8C93A3E5B0E0E3E5F0E08081282F00
:1013C000E981FA818281882F90E082959295907FC1
:1013D0009827807F9827822B8C93ACE5B0E0E98139
:1013E000FA81858196818C930F900F90CF91DF9138
:1013F0000895CF92DF92EF92FF920F931F93DF93A6
:10140000CF9300D00F92CDB7DEB79A8389836B83D9
:1014100089819A81009709F489C0E981FA818081E4
:10142000813009F083C08B81853608F07FC0E98167
:10143000FA8184818823D9F50F2EFAE4CF2EDD249A
:10144000F02D8B81882F90E0AA2797FDA095BA2FC9
:10145000BC01CD010E945504DC01CB01BC01CD01D2
:1014600020E030E048EC52E40E941903DC01CB019B
:101470007C018D01E981FA8181859285CC01A0E012
:10148000B0E0BC01CD010E9407059B01AC01C80181
:10149000B7010E941F02DC01CB01BC01CD010E94FB
:1014A0004900DC01CB01F601918380833FC0E981D3
:1014B000FA8184818130D1F50F2EF8E4CF2EDD241E
:1014C000F02D8B81882F90E0AA2797FDA095BA2F49
:1014D000BC01CD010E945504DC01CB01BC01CD0152
:1014E00020E030E048EC52E40E941903DC01CB011B
:1014F0007C018D01E981FA8181859285CC01A0E092
:10150000B0E0BC01CD010E9407059B01AC01C80100
:10151000B7010E941F02DC01CB01BC01CD010E947A
:101520004900DC01CB01F601918380830F900F907D
:101530000F90CF91DF911F910F91FF90EF90DF906F
:10154000CF900895DF93CF9300D0CDB7DEB79A83C5
:10155000898389819A81009709F4BFC0E981FA8162
:10156000808187708430B1F4E981FA818081887349
:10157000803281F4E981FA818081982F9295969545
:101580009695937081818170880F880F892B8430A4
:1015900009F4A3C0AFE5B0E0EFE5F0E0808180683A
:1015A0008C93E981FA8180818770843009F183E02E
:1015B00062E040E00E94F30CA5E5B0E0E5E5F0E074
:1015C0008081982F9C7FE981FA8180818770892BA7
:1015D0008C93E981FA81828193819093D1018093E8
:1015E000D001ABE5B0E0EBE5F0E0808180648C9366
:1015F000E981FA8180818873803251F183E063E070
:1016000040E00E94F30CA5E5B0E0E5E5F0E0808164
:10161000282F237FE981FA8180818695869586959A
:101620008770882F90E0880F991F880F991F822B51
:101630008C93E981FA81848195819093D301809381
:10164000D201ABE5B0E0EBE5F0E0808180688C93FF
:10165000E981FA818081982F92959695969593705D
:1016600081818170880F880F892B8430B1F181E0EE
:1016700062E040E00E94F30CA4E5B0E0E4E5F0E0B5
:101680008081282FE981FA818081982F9295969503
:101690009695937081818170880F880F892B882F90
:1016A00090E08170907000249695879507949695A8
:1016B00087950794982F802D822B8C93E981FA814E
:1016C000868197819093D5018093D401ABE5B0E0FA
:1016D000EBE5F0E0808180628C930F900F90CF91CA
:1016E000DF910895DF93CF9300D0CDB7DEB79A8313
:1016F0008983ABE5B0E0EBE5F0E080818F7B8C93F4
:10170000ABE5B0E0EBE5F0E080818F778C93ABE563
:10171000B0E0EBE5F0E080818F7D8C930F900F902F
:10172000CF91DF910895DF93CF9300D000D0CDB754
:10173000DEB789836A838981282F30E03C832B833D
:101740008B819C8181309105A1F02B813C812230DD
:10175000310501F18B819C81009791F5A5E5B0E001
:10176000E5E5F0E08081982F9C7F8A81892B8C931E
:1017700027C0A5E5B0E0E5E5F0E08081282F237FD4
:101780008A81882F90E0880F991F880F991F822BDC
:101790008C9316C0A4E5B0E0E4E5F0E08081282F4A
:1017A0008A81882F90E081709070002496958795AB
:1017B0000794969587950794982F802D822B8C936C
:1017C0000F900F900F900F90CF91DF9108951F927F
:1017D0000F920FB60F9211242F933F934F935F9365
:1017E0006F937F938F939F93AF93BF93EF93FF93E9
:1017F000DF93CF93CDB7DEB78091D0019091D10127
:10180000009729F0E091D001F091D1010995CF9195
:10181000DF91FF91EF91BF91AF919F918F917F9158
:101820006F915F914F913F912F910F900FBE0F904D
:101830001F9018951F920F920FB60F9211242F939D
:101840003F934F935F936F937F938F939F93AF9348
:10185000BF93EF93FF93DF93CF93CDB7DEB7809124
:10186000D2019091D301009729F0E091D201F0913B
:10187000D3010995CF91DF91FF91EF91BF91AF9186
:101880009F918F917F916F915F914F913F912F9198
:101890000F900FBE0F901F9018951F920F920FB6CA
:1018A0000F9211242F933F934F935F936F937F93E6
:1018B0008F939F93AF93BF93EF93FF93DF93CF9358
:1018C000CDB7DEB78091D4019091D501009729F072
:1018D000E091D401F091D5010995CF91DF91FF916D
:1018E000EF91BF91AF919F918F917F916F915F9198
:1018F0004F913F912F910F900FBE0F901F90189511
:10190000DF93CF9300D000D00F92CDB7DEB789839D
:101910006A834B838981843008F05DC08A81883076
:1019200008F059C08B81282F30E03D832C838C81B7
:101930009D81009731F02C813D812130310539F1B5
:101940004AC08981882F90E0880F991FFC01E059D7
:10195000FE4FA081B1818981882F90E0880F991F67
:10196000FC01E059FE4F0190F081E02D8081482F6D
:101970008A81282F30E081E090E0022E02C0880F9B
:10198000991F0A94E2F7809584238C9324C089815F
:10199000882F90E0880F991FFC01E059FE4FA0812D
:1019A000B1818981882F90E0880F991FFC01E0594F
:1019B000FE4F0190F081E02D8081482F8A81282FF1
:1019C00030E081E090E0022E02C0880F991F0A9457
:1019D000E2F7842B8C930F900F900F900F900F9045
:1019E000CF91DF910895DF93CF9300D000D00F9275
:1019F000CDB7DEB789836A834B838981843008F051
:101A00005DC08A81883008F059C08B81282F30E072
:101A10003D832C838C819D81009731F02C813D8109
:101A20002130310539F14AC08981882F90E0880F33
:101A3000991FFC01E859FE4FA081B1818981882F4F
:101A400090E0880F991FFC01E859FE4F0190F0814A
:101A5000E02D8081482F8A81282F30E081E090E0BE
:101A6000022E02C0880F991F0A94E2F78095842302
:101A70008C9324C08981882F90E0880F991FFC01E6
:101A8000E859FE4FA081B1818981882F90E0880FAD
:101A9000991FFC01E859FE4F0190F081E02D8081F3
:101AA000482F8A81282F30E081E090E0022E02C08A
:101AB000880F991F0A94E2F7842B8C930F900F9054
:101AC0000F900F900F90CF91DF910895DF93CF93F8
:101AD00000D0CDB7DEB789836A838981843038F539
:101AE0008A81883020F58981882F90E0880F991F9E
:101AF000FC01E859FE4FA081B1818981882F90E0D7
:101B0000880F991FFC01E859FE4F0190F081E02DEC
:101B10008081482F8A81282F30E081E090E0022EDA
:101B200002C0880F991F0A94E2F784278C930F90C4
:101B30000F90CF91DF910895DF93CF9300D000D025
:101B4000CDB7DEB789836A835C834B838981843018
:101B500018F58A81883000F58B819C810097E1F02F
:101B60008981882F90E0880F991FFC01E858FE4F6B
:101B70000190F081E02D8081282F30E08A81882F2C
:101B800090E0A90102C0559547958A95E2F7CA01F0
:101B90008170EB81FC8180830F900F900F900F90EC
:101BA000CF91DF910895DF93CF9300D0CDB7DEB70B
:101BB00089836A838981843068F48981882F90E0E1
:101BC000880F991FFC01E059FE4F0190F081E02D34
:101BD0008A8180830F900F90CF91DF910895DF93DA
:101BE000CF9300D0CDB7DEB789836A8389818430F3
:101BF00068F48981882F90E0880F991FFC01E859CB
:101C0000FE4F0190F081E02D8A8180830F900F902C
:101C1000CF91DF910895DF93CF930F92CDB7DEB7C9
:101C2000898389818430C0F48981882F90E0880F6E
:101C3000991FFC01E859FE4FA081B1818981882F4D
:101C400090E0880F991FFC01E859FE4F0190F08148
:101C5000E02D808180958C930F90CF91DF91089536
:101C6000DF93CF9300D00F92CDB7DEB789837B830C
:101C70006A838981843098F48A819B81009779F006
:101C80008981882F90E0880F991FFC01E858FE4F4A
:101C90000190F081E02D8081EA81FB8180830F90AB
:101CA0000F900F90CF91DF910895DF93CF9300D0E5
:101CB0000F92CDB7DEB789836A834B8389818430E5
:101CC00008F052C08A81803108F04EC08B81863086
:101CD00008F04AC08981882F90E0880F991FFC0185
:101CE000E859FE4FA081B1818981882F90E0880F4B
:101CF000991FFC01E859FE4F0190F081E02D808191
:101D0000482F8B81282F30E08FE090E002C0880FB1
:101D1000991F2A95E2F7809584238C938981882FD7
:101D200090E0880F991FFC01E859FE4FA081B18116
:101D30008981882F90E0880F991FFC01E859FE4F98
:101D40000190F081E02D8081482F8A81282F30E09A
:101D50008B81882F90E0B90102C0660F771F8A95AA
:101D6000E2F7CB01842B8C930F900F900F90CF91C3
:101D7000DF910895DF93CF9300D000D00F92CDB7BD
:101D8000DEB78A837C836B834D838A81882F90E0C2
:101D9000880F991FFC01E858FE4F0190F081E02D5B
:101DA000808189838A818430C0F48B819C810097F3
:101DB000A1F08D81863088F48981282F30E08D81D3
:101DC000882F90E0A90102C0559547958A95E2F7C2
:101DD000CA018F70EB81FC8180830F900F900F9070
:101DE0000F900F90CF91DF910895DF93CF9300D0A4
:101DF0000F92CDB7DEB789836A834B8389818430A4
:101E0000D0F48981882F90E0880F991FFC01E05958
:101E1000FE4F0190F081E02D8A8180838981882F97
:101E200090E0880F991FFC01E859FE4F0190F08166
:101E3000E02D8B8180830F900F900F90CF91DF91D9
:101E40000895DF93CF9300D000D0CDB7DEB789835C
:101E50006A834B832C838981843068F48A8188303B
:101E600050F489816A814C810E94F30C89816A81D6
:101E70004B810E94800C0F900F900F900F90CF918C
:101E8000DF910895DF93CF93CDB7DEB7A7E2B0E03F
:101E9000E7E2F0E080818F7380648C93A6E2B0E08B
:101EA000E6E2F0E0808187608C93A7E2B0E0E7E2B1
:101EB000F0E080818F7D8C93A6E2B0E0E6E2F0E076
:101EC000808180688C93CF91DF910895DF93CF93C9
:101ED00000D00F92CDB7DEB789837B836A838A8176
:101EE0009B81009799F18981883080F5A7E2B0E065
:101EF000E7E2F0E08081982F907E8981892B8C9396
:101F0000A6E2B0E0E6E2F0E0808180648C93E6E255
:101F1000F0E080818295869586958370882F90E089
:101F200081709070882399F7E4E2F0E08081282F97
:101F300030E0E5E2F0E08081882F90E0982F88275C
:101F4000822B932BEA81FB81918380830F900F90EA
:101F50000F90CF91DF910895DF93CF9300D0CDB74D
:101F6000DEB79A83898389819A81009791F0E4E2B0
:101F7000F0E08081282F30E0E5E2F0E08081882FDA
:101F800090E0982F8827822B932BE981FA81918307
:101F900080830F900F90CF91DF910895DF93CF93BF
:101FA00000D0CDB7DEB79A838983E7E2F0E0808185
:101FB0008F71E981FA8180830F900F90CF91DF912B
:101FC0000895DF93CF930F92CDB7DEB78983A7E251
:101FD000B0E0E7E2F0E08081982F907E8981892B44
:101FE0008C930F90CF91DF910895DF93CF93CDB76E
:101FF000DEB71092D801A7E2B0E0E7E2F0E080811E
:10200000282F207E8091D801882F90E0FC01E05895
:10201000FE4F8081822B8C93A6E2B0E0E6E2F0E0F6
:10202000808180648C93CF91DF9108951F920F92ED
:102030000FB60F9211242F933F934F935F936F939B
:102040007F938F939F93AF93BF93EF93FF93DF9310
:10205000CF93CDB7DEB78091D6019091D70100978D
:1020600029F0E091D601F091D7010995CF91DF9148
:10207000FF91EF91BF91AF919F918F917F916F9160
:102080005F914F913F912F910F900FBE0F901F9036
:102090001895DF93CF9300D0CDB7DEB79A838983AD
:1020A00089819A81009709F44AC0E981FA81848183
:1020B0008295869586958370282FE981FA8184819F
:1020C0008770982F822F692F41E00E94800CE98150
:1020D000FA8185818295869586958370282FE9817E
:1020E000FA8184818695869586958770982F822FB0
:1020F000692F41E00E94800CE981FA81868183701A
:10210000282FE981FA8185818770982F822F692F86
:1021100041E00E94800CE981FA818681869586954E
:102120008370282FE981FA81858186958695869529
:102130008770982F822F692F41E00E94800C0F90AA
:102140000F90CF91DF9108950F931F93DF93CF935B
:10215000CDB7DEB7C854D0400FB6F894DEBF0FBE7F
:10216000CDBFFE01E95BFF4F91838083FE01E95BF8
:10217000FF4F80819181009709F421C3FE01E95B43
:10218000FF4F0190F081E02D8481829586958695A0
:102190008370282FFE01E95BFF4F0190F081E02D55
:1021A00084818770982F822F692F41E00E94F30C61
:1021B000FE01ED5BFF4F80E090E0A0E2B1E48083A0
:1021C0009183A283B3838E01015C1F4FFE01ED5BFF
:1021D000FF4F608171818281938120E030E04AEF7E
:1021E00054E40E941F02DC01CB01F801808391833B
:1021F000A283B383FE01FF96608171818281938106
:1022000020E030E040E85FE30E94250488232CF4BE
:1022100081E090E09EAF8DAF46C0FE01FF966081E9
:1022200071818281938120E03FEF4FE757E40E9464
:10223000C503181664F5FE01ED5BFF4F60817181E7
:102240008281938120E030E040E251E40E941F024D
:10225000DC01CB01BC01CD010E944900DC01CB01B6
:102260009EAF8DAF0FC088EC90E09CAF8BAF8BAD75
:102270009CAD0197F1F79CAF8BAF8DAD9EAD0197F3
:102280009EAF8DAF8DAD9EAD009769F716C0FE0174
:10229000FF9660817181828193810E944900DC01F7
:1022A000CB019EAF8DAF8DAD9EAD9AAF89AF89AD9D
:1022B0009AAD0197F1F79AAF89AFFE01E95BFF4F45
:1022C0000190F081E02D84818295869586958370BA
:1022D000282FFE01E95BFF4F0190F081E02D848102
:1022E0008770982F822F692F40E00E94F30CFE0127
:1022F000E95BFF4F0190F081E02D85818295869505
:1023000086958370282FFE01E95BFF4F0190F081D5
:10231000E02D84818695869586958770982F822FEB
:10232000692F41E00E94F30C80E090E0A0E2B1E46C
:102330008DAB9EABAFABB8AF6DA97EA98FA998ADA1
:1023400020E030E04AEF54E40E941F02DC01CB01A0
:1023500089AB9AABABABBCAB69A97AA98BA99CA999
:1023600020E030E040E85FE30E94250488232CF45D
:1023700081E090E098AB8FA73FC069A97AA98BA9AB
:102380009CA920E03FEF4FE757E40E94C5031816D1
:102390004CF56DA97EA98FA998AD20E030E040E210
:1023A00051E40E941F02DC01CB01BC01CD010E945F
:1023B0004900DC01CB0198AB8FA70FC088EC90E0FF
:1023C0009EA78DA78DA59EA50197F1F79EA78DA726
:1023D0008FA598A9019798AB8FA78FA598A900976B
:1023E00069F714C069A97AA98BA99CA90E94490020
:1023F000DC01CB0198AB8FA78FA598A99CA78BA7D1
:102400008BA59CA50197F1F79CA78BA7FE01E95B23
:10241000FF4F0190F081E02D85818295869586950C
:102420008370282FFE01E95BFF4F0190F081E02DC2
:1024300084818695869586958770982F822F692F3F
:1024400040E00E94F30CFE01E95BFF4F0190F08138
:10245000E02D86818370282FFE01E95BFF4F0190FC
:10246000F081E02D85818770982F822F692F41E0C0
:102470000E94F30C80E090E0A0E2B1E48FA398A763
:10248000A9A7BAA76FA178A589A59AA520E030E0F1
:102490004AEF54E40E941F02DC01CB018BA39CA3F2
:1024A000ADA3BEA36BA17CA18DA19EA120E030E0D5
:1024B00040E85FE30E94250488232CF481E090E04B
:1024C0009AA389A33FC06BA17CA18DA19EA120E00E
:1024D0003FEF4FE757E40E94C50318164CF56FA174
:1024E00078A589A59AA520E030E040E251E40E9459
:1024F0001F02DC01CB01BC01CD010E944900DC01BF
:10250000CB019AA389A30FC088EC90E098A38F8F8A
:102510008F8D98A10197F1F798A38F8F89A19AA128
:1025200001979AA389A389A19AA1009769F714C07A
:102530006BA17CA18DA19EA10E944900DC01CB0171
:102540009AA389A389A19AA19E8F8D8F8D8D9E8D2F
:102550000197F1F79E8F8D8FFE01E95BFF4F019090
:10256000F081E02D86818370282FFE01E95BFF4F0B
:102570000190F081E02D85818770982F822F692F3F
:1025800040E00E94F30CFE01E95BFF4F0190F081F7
:10259000E02D8681869586958370282FFE01E95B64
:1025A000FF4F0190F081E02D858186958695869577
:1025B0008770982F822F692F41E00E94F30C80E0F2
:1025C00090E0A0E2B1E4898F9A8FAB8FBC8F698DC8
:1025D0007A8D8B8D9C8D20E030E04AEF54E40E9490
:1025E0001F02DC01CB018D8B9E8BAF8BB88F6D8969
:1025F0007E898F89988D20E030E040E85FE30E947B
:10260000250488232CF481E090E09C8B8B8B3FC0C9
:102610006D897E898F89988D20E03FEF4FE757E4E1
:102620000E94C50318164CF5698D7A8D8B8D9C8D93
:1026300020E030E040E251E40E941F02DC01CB01C7
:10264000BC01CD010E944900DC01CB019C8B8B8B2E
:102650000FC088EC90E09A8B898B89899A890197C1
:10266000F1F79A8B898B8B899C8901979C8B8B8B3B
:102670008B899C89009769F714C06D897E898F8941
:10268000988D0E944900DC01CB019C8B8B8B8B8940
:102690009C89988B8F878F8598890197F1F7988B04
:1026A0008F87FE01E95BFF4F0190F081E02D86816D
:1026B000869586958370282FFE01E95BFF4F019078
:1026C000F081E02D85818695869586958770982F77
:1026D000822F692F40E00E94F30C80E090E0A0E29E
:1026E000B1E48B879C87AD87BE876B857C858D85A4
:1026F0009E8520E030E04AEF54E40E941F02DC0196
:10270000CB018F839887A987BA876F817885898560
:102710009A8520E030E040E85FE30E9425048823AA
:102720002CF481E090E09E838D833FC06F8178859B
:1027300089859A8520E03FEF4FE757E40E94C50363
:1027400018164CF56B857C858D859E8520E030E0E4
:1027500040E251E40E941F02DC01CB01BC01CD012B
:102760000E944900DC01CB019E838D830FC088EC61
:1027700090E09C838B838B819C810197F1F79C83F4
:102780008B838D819E8101979E838D838D819E8118
:10279000009769F714C06F81788589859A850E94B2
:1027A0004900DC01CB019E838D838D819E819A83BC
:1027B000898389819A810197F1F79A838983C85B1C
:1027C000DF4F0FB6F894DEBF0FBECDBFCF91DF91C4
:1027D0001F910F9108950F931F93DF93CF93CDB760
:1027E000DEB7C854D0400FB6F894DEBF0FBECDBFE1
:1027F000FE01E95BFF4F91838083FE01E95BFF4FA0
:1028000080819181009709F421C3FE01E95BFF4FAC
:102810000190F081E02D86818370282FFE01E95B15
:10282000FF4F0190F081E02D85818770982F822FD6
:10283000692F41E00E94F30CFE01ED5BFF4F80E049
:1028400090E0A0EAB0E480839183A283B3838E01F9
:10285000015C1F4FFE01ED5BFF4F60817181828142
:10286000938120E030E04AEF54E40E941F02DC0133
:10287000CB01F80180839183A283B383FE01FF968D
:10288000608171818281938120E030E040E85FE3E4
:102890000E94250488232CF481E090E09EAF8DAF48
:1028A00046C0FE01FF96608171818281938120E0A4
:1028B0003FEF4FE757E40E94C503181664F5FE0189
:1028C000ED5BFF4F608171818281938120E030E078
:1028D00040E251E40E941F02DC01CB01BC01CD01AA
:1028E0000E944900DC01CB019EAF8DAF0FC088EC88
:1028F00090E09CAF8BAF8BAD9CAD0197F1F79CAF97
:102900008BAF8DAD9EAD01979EAF8DAF8DAD9EAD62
:10291000009769F716C0FE01FF9660817181828180
:1029200093810E944900DC01CB019EAF8DAF8DAD3C
:102930009EAD9AAF89AF89AD9AAD0197F1F79AAF85
:1029400089AFFE01E95BFF4F0190F081E02D8681A8
:102950008370282FFE01E95BFF4F0190F081E02D8D
:1029600085818770982F822F692F40E00E94F30C99
:10297000FE01E95BFF4F0190F081E02D8681869595
:1029800086958370282FFE01E95BFF4F0190F0814F
:10299000E02D85818695869586958770982F822F64
:1029A000692F41E00E94F30C80E090E0A0EAB0E4DF
:1029B0008DAB9EABAFABB8AF6DA97EA98FA998AD1B
:1029C00020E030E04AEF54E40E941F02DC01CB011A
:1029D00089AB9AABABABBCAB69A97AA98BA99CA913
:1029E00020E030E040E85FE30E94250488232CF4D7
:1029F00081E090E098AB8FA73FC069A97AA98BA925
:102A00009CA920E03FEF4FE757E40E94C50318164A
:102A10004CF56DA97EA98FA998AD20E030E040E289
:102A200051E40E941F02DC01CB01BC01CD010E94D8
:102A30004900DC01CB0198AB8FA70FC088EC90E078
:102A40009EA78DA78DA59EA50197F1F79EA78DA79F
:102A50008FA598A9019798AB8FA78FA598A90097E4
:102A600069F714C069A97AA98BA99CA90E94490099
:102A7000DC01CB0198AB8FA78FA598A99CA78BA74A
:102A80008BA59CA50197F1F79CA78BA7FE01E95B9D
:102A9000FF4F0190F081E02D8681869586958370A9
:102AA000282FFE01E95BFF4F0190F081E02D858129
:102AB0008695869586958770982F822F692F40E09E
:102AC0000E94F30CFE01E95BFF4F0190F081E02DC5
:102AD00085818295869586958370282FFE01E95B16
:102AE000FF4F0190F081E02D848186958695869533
:102AF0008770982F822F692F41E00E94F30C80E0AD
:102B000090E0A0EAB0E48FA398A7A9A7BAA76FA105
:102B100078A589A59AA520E030E04AEF54E40E9408
:102B20001F02DC01CB018BA39CA3ADA3BEA36BA1B1
:102B30007CA18DA19EA120E030E040E85FE30E94EF
:102B4000250488232CF481E090E09AA389A33FC058
:102B50006BA17CA18DA19EA120E03FEF4FE757E440
:102B60000E94C50318164CF56FA178A589A59AA5F2
:102B700020E030E040E251E40E941F02DC01CB0182
:102B8000BC01CD010E944900DC01CB019AA389A3BD
:102B90000FC088EC90E098A38F8F8F8D98A101973C
:102BA000F1F798A38F8F89A19AA101979AA389A37E
:102BB00089A19AA1009769F714C06BA17CA18DA18E
:102BC0009EA10E944900DC01CB019AA389A389A19F
:102BD0009AA19E8F8D8F8D8D9E8D0197F1F79E8F7F
:102BE0008D8FFE01E95BFF4F0190F081E02D858123
:102BF0008295869586958370282FFE01E95BFF4FAD
:102C00000190F081E02D8481869586958695877068
:102C1000982F822F692F40E00E94F30CFE01E95BA0
:102C2000FF4F0190F081E02D8481829586958695F5
:102C30008370282FFE01E95BFF4F0190F081E02DAA
:102C400084818770982F822F692F41E00E94F30CB6
:102C500080E090E0A0EAB0E4898F9A8FAB8FBC8FC0
:102C6000698D7A8D8B8D9C8D20E030E04AEF54E4A5
:102C70000E941F02DC01CB018D8B9E8BAF8BB88F26
:102C80006D897E898F89988D20E030E040E85FE390
:102C90000E94250488232CF481E090E09C8B8B8B90
:102CA0003FC06D897E898F89988D20E03FEF4FE787
:102CB00057E40E94C50318164CF5698D7A8D8B8DEB
:102CC0009C8D20E030E040E251E40E941F02DC01D4
:102CD000CB01BC01CD010E944900DC01CB019C8BE2
:102CE0008B8B0FC088EC90E09A8B898B89899A89AD
:102CF0000197F1F79A8B898B8B899C8901979C8B23
:102D00008B8B8B899C89009769F714C06D897E89AC
:102D10008F89988D0E944900DC01CB019C8B8B8BA5
:102D20008B899C89988B8F878F8598890197F1F77C
:102D3000988B8F87FE01E95BFF4F0190F081E02DBA
:102D400084818295869586958370282FFE01E95BA4
:102D5000FF4F0190F081E02D84818770982F822FA2
:102D6000692F40E00E94F30C80E090E0A0EAB0E41C
:102D70008B879C87AD87BE876B857C858D859E857F
:102D800020E030E04AEF54E40E941F02DC01CB0156
:102D90008F839887A987BA876F81788589859A8577
:102DA00020E030E040E85FE30E94250488232CF413
:102DB00081E090E09E838D833FC06F817885898517
:102DC0009A8520E03FEF4FE757E40E94C5031816AD
:102DD0004CF56B857C858D859E8520E030E040E25A
:102DE00051E40E941F02DC01CB01BC01CD010E9415
:102DF0004900DC01CB019E838D830FC088EC90E0FD
:102E00009C838B838B819C810197F1F79C838B83BF
:102E10008D819E8101979E838D838D819E810097F8
:102E200069F714C06F81788589859A850E94490069
:102E3000DC01CB019E838D838D819E819A83898362
:102E400089819A810197F1F79A838983C85BDF4F63
:102E50000FB6F894DEBF0FBECDBFCF91DF911F91AB
:102E60000F910895DF93CF93CDB7DEB72A970FB6B2
:102E7000F894DEBF0FBECDBF9E838D834F835887EE
:102E800069877A8719821A821B821C820FC08D8102
:102E90009E810E94A41089819A81AB81BC81019698
:102EA000A11DB11D89839A83AB83BC8329813A819B
:102EB0004B815C818F819885A985BA852817390750
:102EC0004A075B0720F32A960FB6F894DEBF0FBEC1
:102ED000CDBFCF91DF910895DF93CF93CDB7DEB70C
:102EE0002A970FB6F894DEBF0FBECDBF9E838D83A9
:102EF0004F83588769877A8719821A821B821C82BE
:102F00000FC08D819E810E94EB1389819A81AB81D4
:102F1000BC810196A11DB11D89839A83AB83BC83BB
:102F200029813A814B815C818F819885A985BA85F9
:102F3000281739074A075B0720F32A960FB6F8943B
:102F4000DEBF0FBECDBFCF91DF910895DF93CF934A
:102F500000D000D00F92CDB7DEB79B838A83198251
:102F60008A819B81009709F455C0EA81FB818081A9
:102F70008F70882F90E0843091050CF04BC0EA816F
:102F8000FB81808182958F708770882F90E08830D8
:102F900091050CF03FC0EA81FB818081881F882762
:102FA000881F282F30E03D832C838C819D810097E2
:102FB000D1F02C813D812130310551F5EA81FB8131
:102FC00080818F70282FEA81FB81808182958F70AC
:102FD0008770982F822F692F41E020E00E94210FF7
:102FE00081E0898318C0EA81FB8180818F70282F5E
:102FF000EA81FB81808182958F708770982F822F64
:10300000692F41E021E00E94210F81E0898303C004
:10301000198201C0198289810F900F900F900F9033
:103020000F90CF91DF910895DF93CF9300D000D020
:103030000F92CDB7DEB79B838A8319828A819B81E9
:10304000009709F452C0EA81FB8180818F70882F3C
:1030500090E0843091050CF048C0EA81FB818081CA
:1030600082958F708770882F90E088309105ECF5FD
:10307000EA81FB818081881F8827881F282F30E004
:103080003D832C838C819D810097C9F02C813D81EB
:103090002130310541F5EA81FB8180818F70282F35
:1030A000EA81FB81808182958F708770982F822FB3
:1030B000692F40E00E94F30C81E0898317C0EA8108
:1030C000FB8180818F70282FEA81FB81808182952E
:1030D0008F708770982F822F692F41E00E94F30C28
:1030E00081E0898303C0198201C0198289810F9010
:1030F0000F900F900F900F90CF91DF910895DF9375
:10310000CF9300D000D00F92CDB7DEB79B838A83D8
:1031100019828A819B81009709F452C0EA81FB8160
:1031200080818F70882F90E0843091050CF048C02A
:10313000EA81FB81808182958F708770882F90E073
:1031400088309105ECF5EA81FB818081881F882712
:10315000881F282F30E03D832C838C819D81009730
:10316000C9F02C813D812130310541F5EA81FB8197
:1031700080818F70282FEA81FB81808182958F70FA
:103180008770982F822F692F41E00E94F30C81E015
:10319000898317C0EA81FB8180818F70282FEA81A3
:1031A000FB81808182958F708770982F822F692F85
:1031B00040E00E94F30C81E0898303C0198201C0C2
:1031C000198289810F900F900F900F900F90CF91DF
:1031D000DF910895DF93CF9300D00F92CDB7DEB784
:1031E0009B838A8319828A819B81009739F1EA81C6
:1031F000FB8180818F70882F90E084309105F4F4FA
:10320000EA81FB81808182958F708770882F90E0A2
:10321000883091059CF4EA81FB8180818F70282F92
:10322000EA81FB81808182958F708770982F822F31
:10323000692F0E94660D81E0898301C0198289810E
:103240000F900F900F90CF91DF910895DF93CF9360
:1032500000D0CDB7DEB79A83898380E060E040E09C
:103260000E94800C0E94420F0F900F90CF91DF912F
:103270000895DF93CF93CDB7DEB7A7E2B0E0E7E2E2
:10328000F0E08081807E8C93A6E2B0E0E6E2F0E0A0
:10329000808180648C93CF91DF910895DF93CF93E9
:1032A00000D000D00F92CDB7DEB78B837D836C83C7
:1032B0001A821982A7E2B0E0E7E2F0E08081982F5D
:1032C000907E8B81892B8C93A6E2B0E0E6E2F0E061
:1032D000808180648C93E6E2F0E08081829586951F
:1032E00086958370882F90E081709070882399F77D
:1032F000CE0101960E94AC0F89819A81CC01A0E099
:10330000B0E0BC01CD010E940705DC01CB01BC018E
:10331000CD012FE632E143E050E40E941903DC01C5
:10332000CB01BC01CD010E944900DC01CB01EC8145
:10333000FD81918380830F900F900F900F900F90DD
:10334000CF91DF910895EF92FF920F931F93DF9338
:10335000CF93CDB7DEB729970FB6F894DEBF0FBE77
:10336000CDBF998788871F821E821D8219821A828B
:103370001B821C8288859985009709F4D1C0E88555
:10338000F98580818370282FE885F985808186956D
:1033900086958770982F822F692F41E020E00E9448
:1033A000210FE885F98580818370282FE885F985CC
:1033B0008081829586958770982F822F692F41E0B2
:1033C00020E00E94210FE885F9858181823009F48F
:1033D000A7C0E885F985918185E0282F291B922FC8
:1033E00083E0692F41E00E94800CE885F9858281A5
:1033F00093810E946F1B8F83E885F9858281938179
:10340000CC01A0E0B0E0BC01CD010E9407059B010A
:10341000AC0160E070E080E89FE30E941903DC01EA
:10342000CB01BC01CD0120E034E244EF5AE40E941C
:103430001F02DC01CB01BC01CD010E944900DC016F
:10344000CB0189839A83AB83BC8369817A818B8129
:103450009C810E9407057B018C018F81882F90E061
:103460000197880F991FFC01EC53FE4F80819181D9
:10347000CC01A0E0B0E0BC01CD010E9407059B019A
:10348000AC01C801B7010E941903DC01CB01BC01EA
:10349000CD010E944900DC01CB019E838D83E8852C
:1034A000F98581818823E1F48D819E8190938D013E
:1034B00080938C018F8180938601109289011092F4
:1034C000880183E891E00E948208E885F98584817B
:1034D0008F77282F83E891E0622F0E94F90920C09E
:1034E000E885F98581818130D9F48D819E81909321
:1034F0009801809397018F8180939101109294019C
:10350000109293018EE891E00E948208E885F98587
:1035100084818F77282F8EE891E0622F0E94F9092D
:1035200029960FB6F894DEBF0FBECDBFCF91DF91C5
:103530001F910F91FF90EF900895DF93CF9300D0EC
:10354000CDB7DEB79A83898389819A81009789F004
:10355000E981FA8180818370282FE981FA81808155
:10356000869586958770982F822F692F41E00E945B
:10357000F30C0F900F90CF91DF910895DF93CF93CD
:1035800000D0CDB7DEB79A83898389819A8100976D
:1035900089F0E981FA8180818370282FE981FA819D
:1035A0008081869586958770982F822F692F40E0BD
:1035B0000E94F30C0F900F90CF91DF910895DF934D
:1035C000CF9300D0CDB7DEB79A83898389819A8162
:1035D000009711F1E981FA8180818370282FE981B8
:1035E000FA818081869586958770982F822F692F22
:1035F00040E00E94F30CE981FA8180818370282FDA
:10360000E981FA818081829586958770982F822F33
:10361000692F41E00E94F30C0F900F90CF91DF9142
:103620000895DF93CF9300D00F92CDB7DEB79A8382
:1036300089836B83E981FA818181882359F4E98147
:10364000FA8184818F77282F83E891E0622F0E948E
:10365000F9090FC0E981FA818181813051F4E98152
:10366000FA8184818F77282F8EE891E0622F0E9463
:10367000F9090F900F900F90CF91DF910895DF938C
:10368000CF9300D00F92CDB7DEB79A8389836B8337
:1036900089819A810E949D1A89819A816B810E94F9
:1036A000111B0F900F900F90CF91DF910895DF9332
:1036B000CF9300D00F92CDB7DEB79A8389836B8307
:1036C00089819A810E94DF1A89819A816B810E9487
:1036D000111B0F900F900F90CF91DF910895DF9302
:1036E000CF93CDB7DEB72A970FB6F894DEBF0FBEE3
:1036F000CDBF9A87898784E088878FEF9FEF9F836C
:103700008E831D8289859A85CC01A0E0B0E0BC0142
:10371000CD010E9407059B01AC0160E070E080E8EC
:103720009FE30E941903DC01CB01BC01CD0120E025
:1037300034E244EF5AE40E941F02DC01CB01BC01D9
:10374000CD010E944900DC01CB0189839A83AB83C0
:10375000BC8344C08885992787FD9095880F991F61
:10376000FC01EC53FE4F808191819C0140E050E0D0
:1037700089819A81AB81BC81BC01CD010E943D1F32
:10378000DC01CB019C01AD018E819F81CC01A0E0C9
:10379000B0E0281739074A075B07E8F488859927BE
:1037A00087FD9095880F991FFC01EC53FE4F808197
:1037B00091819C0140E050E089819A81AB81BC817C
:1037C000BC01CD010E943D1FDC01CB019F838E8394
:1037D00088858F5F8D838885815088878885882339
:1037E0000CF0B8CF8D812A960FB6F894DEBF0FBECD
:1037F000CDBFCF91DF910895DF93CF93CDB7DEB7E3
:103800000E94091C0E94891C0E94F01E0E94C91D72
:10381000F9CFDF93CF93CDB7DEB783EC91E00E9471
:10382000A6170E94750785E59CE10E94BD0780E010
:1038300060E040E00E94800C80E061E040E00E9497
:10384000800C80E062E040E00E94800C80E090E02C
:103850000E94261987EA91E00E94A31980EA91E06C
:103860000E94491089E991E00E9449108CEA91E098
:103870000E94A6178DEA91E00E94A6178CEB91E0BA
:103880000E94A31985EB91E00E9449108EEA91E015
:103890000E94491081EC91E00E94A61782EC91E011
:1038A0000E94A617CF91DF910895DF93CF93CDB7F4
:1038B000DEB78091F8018823A1F489EE91E00E949F
:1038C00007088091E9018C3321F481E08093F801AD
:1038D0001DC08091E9018E33C9F482E08093F80124
:1038E00015C08091F801813039F48AEE91E00E9490
:1038F00007081092F8010AC08091F801823031F473
:103900008BEE91E00E9407081092F801CF91DF91B1
:103910000895DF93CF93CDB7DEB720EF31E080E09D
:10392000B9010E944E1922EF31E081E0B9010E94F5
:103930004E1924EF31E082E0B9010E944E198091C6
:10394000F0019091F1018436910570F48091F201BB
:103950009091F3018436910538F48091F4019091AF
:10396000F5018436910530F183EC91E00E947F18D7
:1039700080E00E94AC1D82E00E94AC1D80E00E94AD
:10398000DD1C82E00E94DD1C80E00E94391D82E087
:103990000E94391D8CEA91E00E94141881EC91E09C
:1039A0000E9414188DEA91E00E94141882EC91E0B4
:1039B0000E941418CF91DF910895DF93CF930F9257
:1039C000CDB7DEB789838981882381F48091EC01AA
:1039D000882361F480EA91E04BE050E060E070E021
:1039E0000E94321781E08093EC0112C089818230FD
:1039F00079F48091ED01882359F485EB91E04BE057
:103A000050E060E070E00E94321781E08093ED01A9
:103A10000F90CF91DF910895DF93CF930F92CDB7A1
:103A2000DEB789838981882379F48091EC01813024
:103A300059F480EA91E04BE050E060E070E00E94D1
:103A40006C171092EC0111C08981823071F4809161
:103A5000ED01813051F485EB91E04BE050E060E006
:103A600070E00E946C171092ED010F90CF91DF91E2
:103A70000895DF93CF930F92CDB7DEB78983898105
:103A8000882381F48091EE01882361F489E991E033
:103A90004BE050E060E070E00E94321781E08093DC
:103AA000EE0112C08981823079F48091EF01882380
:103AB00059F48EEA91E04BE050E060E070E00E9443
:103AC000321781E08093EF010F90CF91DF9108953D
:103AD000DF93CF930F92CDB7DEB789838981882397
:103AE00079F48091EE01813059F489E991E04BE05D
:103AF00050E060E070E00E946C171092EE0111C07F
:103B00008981823071F48091EF01813051F48EEA25
:103B100091E04BE050E060E070E00E946C17109282
:103B2000EF010F90CF91DF910895DF93CF930F9224
:103B3000CDB7DEB789838981882321F481E0809322
:103B4000F60106C08981823019F481E08093F70183
:103B50000F90CF91DF910895DF93CF930F92CDB760
:103B6000DEB789838981882339F487EA91E00E944E
:103B7000BE1A1092F60109C08981823031F48CEBB3
:103B800091E00E94BE1A1092F7010F90CF91DF9141
:103B90000895DF93CF9300D0CDB7DEB78091E901D0
:103BA000282F30E03A83298389819A8188329105D0
:103BB00009F4BAC029813A81293231050CF043C099
:103BC00089819A818331910509F49BC029813A81C9
:103BD00024313105FCF489819A818A30910509F4F8
:103BE0007BC029813A812B3031053CF489819A814F
:103BF0008930910509F477C0EEC029813A812B30D4
:103C0000310509F4B0C089819A818C30910509F49D
:103C1000A3C0E1C029813A812531310509F4B1C041
:103C200089819A81853191050CF464C029813A819A
:103C30002631310509F49EC089819A818732910528
:103C400009F478C0C8C029813A812333310509F4C9
:103C5000A5C089819A8184339105CCF429813A8168
:103C60002A32310509F4A0C089819A818A329105EE
:103C70000CF4A0C029813A812133310509F44EC0EA
:103C800089819A818233910509F442C0A4C02981B7
:103C90003A812C33310509F453C089819A818D33DF
:103CA00091056CF429813A812433310509F470C0FF
:103CB00089819A818B33910509F448C08CC0298190
:103CC0003A812D33310509F481C089819A818E337F
:103CD000910509F475C07FC08CEA91E00E947F18BD
:103CE0001092E90178C08CEA91E00E9414181092B9
:103CF000E90171C08DEA91E00E947F181092E901FC
:103D00006AC08DEA91E00E9414181092E90163C024
:103D100080E00E94391D1092E9015DC080E00E94A0
:103D2000681D1092E90157C080E00E94DD1C1092CE
:103D3000E90151C080E00E940C1D1092E9014BC0C6
:103D400080E00E94951D1092E90145C080E00E942C
:103D5000AC1D1092E9013FC081EC91E00E947F18F8
:103D60001092E90138C081EC91E00E941418109281
:103D7000E90131C082EC91E00E947F181092E901C4
:103D80002AC082EC91E00E9414181092E90123C02D
:103D900082E00E94391D1092E9011DC082E00E945C
:103DA000681D1092E90117C082E00E94DD1C10928C
:103DB000E90111C082E00E940C1D1092E9010BC0C4
:103DC00082E00E94951D1092E90105C082E00E94E8
:103DD000AC1D1092E9010F900F90CF91DF910895E3
:103DE000DF93CF93CDB7DEB78091F6018130F9F440
:103DF0008091EA01282F30E08091F0019091F1014B
:103E00008217930728F087EA91E00E949D1A0FC05D
:103E10008091EA01282F30E08091F0019091F1012A
:103E20008217930720F487EA91E00E94BE1A8091DE
:103E3000F7018130F9F48091EB01282F30E0809177
:103E4000F2019091F3018217930728F08CEB91E037
:103E50000E949D1A0FC08091EA01282F30E08091C6
:103E6000F0019091F1018217930720F48CEB91E01F
:103E70000E94BE1ACF91DF910895A1E21A2EAA1BCB
:103E8000BB1BFD010DC0AA1FBB1FEE1FFF1FA2170A
:103E9000B307E407F50720F0A21BB30BE40BF50B07
:103EA000661F771F881F991F1A9469F76095709590
:103EB000809590959B01AC01BD01CF0108952F9293
:103EC0003F924F925F926F927F928F929F92AF92AA
:103ED000BF92CF92DF92EF92FF920F931F93CF93F7
:103EE000DF93CDB7DEB7CA1BDB0B0FB6F894DEBF8E
:103EF0000FBECDBF09942A88398848885F846E84B4
:103F00007D848C849B84AA84B984C884DF80EE80FD
:103F1000FD800C811B81AA81B981CE0FD11D0FB606
:103F2000F894DEBF0FBECDBFED010895F894FFCF2A
:103F30000000000000000000000102020303030370
:103F40000404040404040404050505050505050529
:103F50000505050505050505060606060606060609
:103F600006060606060606060606060606060606F1
:103F700006060606060606060707070707070707D9
:103F800007070707070707070707070707070707C1
:103F900007070707070707070707070707070707B1
:103FA00007070707070707070707070707070707A1
:103FB0000707070707070707080808080808080889
:103FC0000808080808080808080808080808080871
:103FD0000808080808080808080808080808080861
:103FE0000808080808080808080808080808080851
:103FF0000808080808080808080808080808080841
:104000000808080808080808080808080808080830
:104010000808080808080808080808080808080820
:104020000808080808080808080808080808080810
:1040300008080808080808083B0038003500320066
:104040003A003700340031003900360033003000C8
:104050000001020101020000000000000000010157
:1040600002000100000000000000000000485A05A6
:10407000000000006C7E050B02000000C0D00000B4
:104080000000889A0A00000000ACBE0A0F0200007F
:0E40900000E0F06301000800400000010004A1
:00000001FF
