:100000000C942A000C94840C0C94B70C0C94EA0CFD
:100010000C9447000C9447000C9447000C940C0B74
:100020000C9447000C9447000C94A60A0C94D90A2F
:100030000C9447000C9441080C9447000C94470022
:100040000C94B3100C9447000C9447000C94470098
:100050000C94470011241FBECFE5D8E0DEBFCDBF12
:1000600013E0A0E6B0E0ECE4F2E602C005900D92E9
:10007000A233B107D9F713E0A2E3B3E001C01D92A8
:10008000A535B107E1F70E9458270C9424310C9450
:100090000000EF92FF920F931F937B018C0120E0F1
:1000A00030E040E05FE40E94F50388238CF0C80153
:1000B000B70120E030E040E05FE40E94C1010E940F
:1000C000B3049B01AC01205030404040504806C072
:1000D000C801B7010E94B3049B01AC01B901CA0178
:1000E0001F910F91FF90EF900895A0E0B0E0EBE733
:1000F000F0E00C943F2EDC012B01FA019C91923030
:1001000008F439C1EB018881823008F433C194309E
:1001100069F4843009F02FC111969C91119789815F
:10012000981709F428C1ABEDB1E025C1843009F47A
:1001300021C18230A9F4923009F01DC19A01AD01AC
:1001400088E0EA010990AE01E90109929E0181501F
:10015000C1F7E201898111969C918923818308C1AD
:10016000923009F407C112962D903C901397EB0141
:100170008A819B811496AD90BD90CD90DC901797AD
:10018000EC80FD800E811F819101281B390BB90184
:1001900037FF04C066277727621B730B6032710537
:1001A0000CF061C0121613066CF537014801062EDB
:1001B00004C096948794779467940A94D2F721E0C8
:1001C00030E040E050E004C0220F331F441F551FB1
:1001D0006A95D2F721503040404050402E213F21B7
:1001E00040235123211531054105510521F021E01E
:1001F00030E040E050E079018A01E628F72808293C
:1002000019293CC0232BD1F1260E371E350146019A
:10021000062E04C096948794779467940A94D2F734
:1002200021E030E040E050E004C0220F331F441FC3
:10023000551F6A95D2F721503040404050402A2146
:100240003B214C215D21211531054105510521F04E
:1002500021E030E040E050E059016A01A628B728CB
:10026000C828D9280BC0821593052CF01C01AA249C
:10027000BB24650103C0EE24FF24870111969C91E5
:10028000D20111968C91981709F445C0992339F041
:10029000A80197012A193B094C095D0906C0A6016E
:1002A00095012E193F09400B510B57FD08C01182D3
:1002B0003382228224833583468357831DC081E0A5
:1002C00081833382228288279927DC01821B930B4A
:1002D000A40BB50B84839583A683B7830DC0220F2F
:1002E000331F441F551F24833583468357838281E0
:1002F000938101979383828324813581468157813D
:10030000DA01C9010197A109B1098F5F9F4FAF4F72
:10031000BF4328F30BC0918333822282EA0CFB1C7B
:100320000C1D1D1DE482F5820683178383E0808304
:10033000248135814681578157FF1AC0C901AA27F8
:1003400097FDA095BA2F81709070A070B0705695EF
:10035000479537952795822B932BA42BB52B848318
:100360009583A683B7838281938101969383828349
:10037000DF0101C0D201CD01CDB7DEB7E2E10C94BF
:100380005B2EA0E2B0E0E7ECF1E00C944B2E698329
:100390007A838B839C832D833E834F835887E9E048
:1003A000EE2EF12CEC0EFD1ECE010196B7010E943F
:1003B000A4068E010F5E1F4FCE010596B8010E9464
:1003C000A4068A8991E089278A8BC701B801AE010A
:1003D000475E5F4F0E9475000E94CF05A096E6E041
:1003E0000C94672EA0E2B0E0E8EFF1E00C944B2E05
:1003F00069837A838B839C832D833E834F835887C5
:10040000F9E0EF2EF12CEC0EFD1ECE010196B701A6
:100410000E94A4068E010F5E1F4FCE010596B80103
:100420000E94A406C701B801AE01475E5F4F0E945B
:1004300075000E94CF05A096E6E00C94672EA0E21E
:10044000B0E0E5E2F2E00C943F2E69837A838B837F
:100450009C832D833E834F835887CE010196BE0136
:10046000675F7F4F0E94A406CE010596BE016F5EB6
:100470007F4F0E94A4069985923088F08989823046
:10048000C8F0943019F4823051F404C0843029F457
:10049000923081F48BED91E0C6C0923049F420E0B7
:1004A0009A858A89981321E02A87CE010996BBC0D4
:1004B000823049F420E09A858A89981321E02A8BBA
:1004C000CE014196B0C02D843E844F8458886D88FB
:1004D0007E888F88988CEE24FF248701AA24BB2471
:1004E000650140E050E060E070E0E0E0F0E0C10174
:1004F00081709070892BE9F0E60CF71C081D191D1E
:100500009A01AB012A0D3B1D4C1D5D1D80E090E062
:10051000A0E0B0E0E614F7040805190520F481E036
:1005200090E0A0E0B0E0BA01A901480F591F6A1F8E
:100530007B1FAA0CBB1CCC1CDD1C97FE08C081E0F5
:1005400090E0A0E0B0E0A82AB92ACA2ADB2A3196B6
:10055000E032F10549F0660C771C881C991C569412
:10056000479437942794C3CFFA85EA892B893C892D
:100570008B859C85280F391F2E5F3F4F17C0CA01FE
:1005800081709070892B61F016950795F794E79428
:1005900080E090E0A0E0B0E8E82AF92A0A2B1B2BC3
:1005A00076956795579547952F5F3F4F77FDE7CF36
:1005B0000CC0440F551F661F771F17FD4160EE0CDE
:1005C000FF1C001F111F21503040403090E05907A0
:1005D00090E0690790E4790760F32B8F3C8FDB0193
:1005E000CA018F779070A070B07080349105A1051A
:1005F000B10561F447FD0AC0E114F10401051105DC
:1006000029F0405C5F4F6F4F7F4F40781A8EFE1786
:1006100011F081E08A8F4D8F5E8F6F8F78A383E01A
:10062000898FCE0149960E94CF05A096E2E10C94F5
:100630005B2EA8E1B0E0EFE1F3E00C94472E698374
:100640007A838B839C832D833E834F835887B9E0C5
:10065000EB2EF12CEC0EFD1ECE010196B7010E948F
:10066000A4068E010F5E1F4FCE010596B8010E94B1
:10067000A4062985223008F47EC03989323010F46E
:10068000B8017CC08A859A8989278A87243011F02D
:10069000223031F4231709F06EC06BED71E06EC0AB
:1006A000343039F41D861E861F86188A1C861B86E8
:1006B00004C0323021F484E08987B7015FC02B8504
:1006C0003C858B899C89281B390B3C872B87ED84C3
:1006D000FE840F851889AD88BE88CF88D88CEA142F
:1006E000FB040C051D0540F4EE0CFF1C001F111F40
:1006F000215030403C872B8720E030E040E050E044
:1007000080E090E0A0E0B0E460E070E0EA14FB0478
:100710000C051D0540F0282B392B4A2B5B2BEA18C2
:10072000FB080C091D09B695A79597958795EE0CC2
:10073000FF1C001F111F6F5F7F4F6F31710531F775
:10074000DA01C9018F779070A070B0708034910584
:10075000A105B10561F427FD0AC0E114F10401050A
:10076000110529F0205C3F4F4F4F5F4F20782D87B8
:100770003E874F87588BBE01675F7F4FCB010E943A
:10078000CF056896EAE00C94632EA8E1B0E0EBECAC
:10079000F3E00C944B2E69837A838B839C832D83A7
:1007A0003E834F83588789E0E82EF12CEC0EFD1E26
:1007B000CE010196B7010E94A4068E010F5E1F4F65
:1007C000CE010596B8010E94A4068985823040F0CA
:1007D0008989823028F0C701B8010E941C0701C036
:1007E0008FEF6896E6E00C94672EA8E1B0E0EBEF9F
:1007F000F3E00C944B2E69837A838B839C832D8347
:100800003E834F83588789E0E82EF12CEC0EFD1EC5
:10081000CE010196B7010E94A4068E010F5E1F4F04
:10082000CE010596B8010E94A4068985823040F069
:100830008989823028F0C701B8010E941C0701C0D5
:100840008FEF6896E6E00C94672EA8E1B0E0EBE24B
:10085000F4E00C944B2E69837A838B839C832D83E5
:100860003E834F83588789E0E82EF12CEC0EFD1E65
:10087000CE010196B7010E94A4068E010F5E1F4FA4
:10088000CE010596B8010E94A4068985823040F009
:100890008989823028F0C701B8010E941C0701C075
:1008A00081E06896E6E00C94672EA8E0B0E0EBE506
:1008B000F4E00C94482E9B01AC0183E08983DA01BB
:1008C000C9018827B7FD83959927AA27BB27B82E8A
:1008D000211531054105510519F482E089833AC09B
:1008E0008823A9F0203080E0380780E0480780E8BE
:1008F000580729F460E070E080E09FEC30C0EE24FF
:10090000FF248701E21AF30A040B150B02C07901D8
:100910008A018EE1C82ED12CDC82CB82ED82FE8250
:100920000F831887C801B7010E9480050197181628
:10093000190684F4082E04C0EE0CFF1C001F111FC2
:100940000A94D2F7ED82FE820F831887C81AD90A5B
:10095000DC82CB82BA82CE0101960E94CF05289616
:10096000E9E00C94642EACE0B0E0E9EBF4E00C9428
:100970004F2E69837A838B839C83CE010196BE01BF
:100980006B5F7F4F0E94A4068D81823061F18230BF
:1009900050F1843021F48E81882351F12EC02F81B3
:1009A000388537FD20C06E812F3131051CF066235C
:1009B000F9F023C08EE190E0821B930B29853A85E4
:1009C0004B855C8504C056954795379527958A9544
:1009D000D2F76623B1F050954095309521953F4F61
:1009E0004F4F5F4F0EC020E030E040E050E009C0C4
:1009F0002FEF3FEF4FEF5FE704C020E030E040E033
:100A000050E8B901CA012C96E2E00C946B2EA8E0E4
:100A1000B0E0EDE0F5E00C94472E7B018C01611510
:100A200071058105910519F482E0898360C083E036
:100A300089838EE1C82ED12CDC82CB82ED82FE82AE
:100A40000F831887C801B7010E948005FC01319708
:100A5000F7FF3BC0222733272E1B3F0B57016801AE
:100A6000022E04C0D694C794B794A7940A94D2F7E0
:100A700040E050E060E070E081E090E0A0E0B0E0B5
:100A800004C0880F991FAA1FBB1F2A95D2F7019790
:100A9000A109B1098E219F21A023B1230097A105AF
:100AA000B10521F041E050E060E070E04A295B29A7
:100AB0006C297D294D835E836F8378878EE190E07A
:100AC0008E1B9F0B9C838B8312C0309781F00E2E60
:100AD00004C0EE0CFF1C001F111F0A94D2F7ED8218
:100AE000FE820F831887CE1ADF0ADC82CB821A823D
:100AF000CE0101960E94CF052896EAE00C94632E61
:100B0000EF92FF920F931F937B018C0180E0E81618
:100B100080E0F80681E0080780E0180788F48FEF8E
:100B2000E816F1040105110531F028F088E090E0A5
:100B3000A0E0B0E017C080E090E0A0E0B0E012C01C
:100B400080E0E81680E0F80680E0080781E01807FA
:100B500028F088E190E0A0E0B0E004C080E190E0FF
:100B6000A0E0B0E020E230E040E050E0281B390B8C
:100B70004A0B5B0B04C016950795F794E7948A958A
:100B8000D2F7F701ED51FE4F8081281B3109410951
:100B90005109C9011F910F91FF90EF900895DF92C5
:100BA000EF92FF920F931F93FC01E480F580068182
:100BB0001781D1808081823048F480E090E0A0E10C
:100BC000B0E0E82AF92A0A2B1B2BA5C0843009F4CF
:100BD0009FC0823021F4EE24FF24870105C0E11478
:100BE000F1040105110519F4E0E0F0E096C062811E
:100BF00073819FEF623879070CF05BC022E83FEF0A
:100C0000261B370B2A3131052CF020E030E040E084
:100C100050E02AC0B801A701022E04C0769567955E
:100C2000579547950A94D2F781E090E0A0E0B0E0B4
:100C300004C0880F991FAA1FBB1F2A95D2F70197DE
:100C4000A109B1098E219F21A023B1230097A105FD
:100C5000B10521F081E090E0A0E0B0E09A01AB01A5
:100C6000282B392B4A2B5B2BDA01C9018F77907027
:100C7000A070B07080349105A105B10539F427FF4B
:100C800009C0205C3F4F4F4F5F4F04C0215C3F4F76
:100C90004F4F5F4FE0E0F0E02030A0E03A07A0E0E7
:100CA0004A07A0E45A0710F0E1E0F0E079018A0178
:100CB00027C06038710564F5FB01E158FF4FD8018A
:100CC000C7018F779070A070B07080349105A10536
:100CD000B10539F4E7FE0DC080E490E0A0E0B0E09B
:100CE00004C08FE390E0A0E0B0E0E80EF91E0A1F18
:100CF0001B1F17FF05C016950795F794E7943196CB
:100D000087E016950795F794E7948A95D1F705C083
:100D1000EE24FF248701EFEFF0E06E2F6795662742
:100D20006795902F9F77D794DD24D7948E2F869543
:100D3000492F462B582F5D29B701CA011F910F91EA
:100D4000FF90EF90DF900895FC01DB01408151811D
:100D50002281622F6F7770E0221F2227221F93814A
:100D6000892F880F822B282F30E0991F9927991FF0
:100D700011969C93119721153105A9F5411551053F
:100D80006105710511F482E037C082E89FEF139688
:100D90009C938E9312979A01AB0167E0220F331F49
:100DA000441F551F6A95D1F783E08C930DC0220F25
:100DB000331F441F551F12968D919C9113970197D5
:100DC00013969C938E931297203080E0380780E032
:100DD000480780E4580758F314962D933D934D939C
:100DE0005C93179708952F3F310579F4411551050C
:100DF0006105710519F484E08C93089564FF03C0C4
:100E000081E08C9312C01C9210C02F573040139673
:100E10003C932E93129783E08C9387E0440F551FE9
:100E2000661F771F8A95D1F7706414964D935D9372
:100E30006D937C93179708951F93DC01FB019C91A0
:100E4000923008F447C08081823008F443C0943067
:100E500051F411961C91843099F58181682F70E0CE
:100E6000611B71093FC0843021F0923031F482302F
:100E7000B9F18181882389F12DC011961C911197B8
:100E80008230F1F081811817D9F412962D913C919E
:100E90001397828193818217930794F0281739075B
:100EA000BCF014968D919D910D90BC91A02D248144
:100EB000358146815781281739074A075B0718F49F
:100EC000112341F00AC082179307A407B50740F425
:100ED000112319F061E070E005C06FEF7FEF02C0F1
:100EE00060E070E0CB011F910895DF93CF93CDB701
:100EF000DEB7ABE2B0E0EBE2F0E080818C93A0E4FF
:100F0000B0E0E0E4F0E0808180688C93AAE2B0E099
:100F1000EAE2F0E080818C93E0E4F0E088E0808316
:100F2000A0E4B0E0E0E4F0E080818F778C93E9E228
:100F3000F0E083E38083E0E4F0E01082AAE2B0E036
:100F4000EAE2F0E0808180618C93AAE2B0E0EAE21C
:100F5000F0E0808188608C93CF91DF910895DF93DA
:100F6000CF9300D0CDB7DEB79A83898389819A81E8
:100F7000009731F089819A819093330380933203F3
:100F80000F900F90CF91DF910895DF93CF930F9241
:100F9000CDB7DEB78983EBE2F0E08081829586955C
:100FA0008770882F90E0817090700097A1F3ECE239
:100FB000F0E0898180830F90CF91DF910895DF93D6
:100FC000CF9300D0CDB7DEB79A838983EBE2F0E010
:100FD0008081881F8827881F8130C1F7ECE2F0E00C
:100FE0008081E981FA8180830F900F90CF91DF910A
:100FF0000895DF93CF9300D0CDB7DEB79A8389836E
:10100000ECE2F0E08081E981FA8180830F900F901B
:10101000CF91DF910895DF93CF9300D00F92CDB79A
:10102000DEB79B838A831982EBE2F0E080818295B0
:1010300086958770882F90E0817090700097A1F35B
:101040000FC08981282F30E08A819B81FC01E20F4B
:10105000F31F908189818F5F8983892F0E94C50743
:101060008981282F30E08A819B81FC01E20FF31FE8
:101070008081882331F70F900F900F90CF91DF91EF
:1010800008951F920F920FB60F9211242F933F9342
:101090004F935F936F937F938F939F93AF93BF9380
:1010A000EF93FF93DF93CF93CDB7DEB780913203F9
:1010B00090913303009729F0E0913203F0913303CC
:1010C0000995CF91DF91FF91EF91BF91AF919F91E2
:1010D0008F917F916F915F914F913F912F910F90E1
:1010E0000FBE0F901F901895DF93CF9300D00F92F3
:1010F000CDB7DEB789837B836A83ECE3F0E0808140
:101100008695882F90E0817090708823B1F7EEE388
:10111000F0E08A819B8191838083EDE3F0E0898117
:101120008083E29AE19A0F900F900F90CF91DF9118
:101130000895DF93CF9300D000D0CDB7DEB79A8368
:1011400089837C836B8389819A810097B9F0ECE372
:10115000F0E080818695882F90E0817090708823E0
:10116000B1F7EEE3F0E08B819C8191838083E09A7C
:10117000EDE3F0E08081E981FA8180830F900F90A8
:101180000F900F90CF91DF910895DF93CF93CDB75C
:10119000DEB72C970FB6F894DEBF0FBECDBF6E83BF
:1011A0007F83888799875B874A872C878C858530E2
:1011B00008F03FC08C85282F30E080E094E0821B4F
:1011C000930B9C018A859B852817390790F18E81A6
:1011D0009F81A885B9858A839B83AC83BD8319824F
:1011E00024C08981882F90E09C01220F331F220F99
:1011F000331F220F331F8A819B81AC81BD8104C0C4
:10120000B695A795979587952A95D2F7482F898106
:10121000282F30E08A859B85280F391F842FB9013C
:101220000E94740889818F5F898399818C859817C2
:10123000C0F22C960FB6F894DEBF0FBECDBFCF9193
:10124000DF910895DF93CF93CDB7DEB72B970FB61D
:10125000F894DEBF0FBECDBF98878F837A876987EA
:101260004B878F819885009709F45AC08B8585300C
:1012700008F056C08B85282F30E080E094E0821B78
:10128000930B9C0189859A852817390708F448C073
:101290001E821A821B821C821D82198233C08981A0
:1012A000282F30E089859A85280F391FCE010696B0
:1012B000B9010E9499088E81282F30E08981882FFA
:1012C00090E0880F991F880F991F880F991FA90117
:1012D00002C0440F551F8A95E2F7CA019C014427BA
:1012E00037FD4095542F8A819B81AC81BD81822B33
:1012F000932BA42BB52B8A839B83AC83BD838981DD
:101300008F5F898399818B85981748F2EF81F885E3
:101310008A819B81AC81BD8180839183A283B383C9
:101320002B960FB6F894DEBF0FBECDBFCF91DF91E5
:101330000895DF93CF9300D0CDB7DEB79A8389832A
:1013400089819A81009709F4CDC0E981FA81808171
:10135000882309F076C0E981FA8181818823A9F583
:10136000E981FA81868197819093350380933403D4
:10137000A3E5B0E0E3E5F0E080818F7B8C93A3E50B
:10138000B0E0E3E5F0E08081877F8C93A3E5B0E0F7
:10139000E3E5F0E09081E981FA818281892B8C93E9
:1013A000A2E5B0E0E981FA8183818C93A9E5B0E000
:1013B000E9E5F0E0808181608C93AFE5B0E0EFE596
:1013C000F0E0808180688C938DC0E981FA81818111
:1013D000823009F087C0E981FA81868197819093F4
:1013E000370380933603A3E5B0E0E3E5F0E08081C6
:1013F0008F7B8C93A3E5B0E0E3E5F0E0808188602B
:101400008C93A3E5B0E0E3E5F0E09081E981FA8117
:101410008281892B8C93ACE5B0E0E981FA818481EB
:1014200095818C93A9E5B0E0E9E5F0E080818260E8
:101430008C93AFE5B0E0EFE5F0E0808180688C93BD
:1014400051C0E981FA818081813009F04BC0E98186
:10145000FA818181823009F045C0E981FA81868173
:1014600097819093390380933803AFE4B0E0EFE4C1
:10147000F0E080818E7F8C93AFE4B0E0EFE4F0E0A9
:1014800080818D7F8C93AEE4B0E0EEE4F0E080816B
:1014900088608C93AEE4B0E0EEE4F0E080818F7E73
:1014A0008C93AEE4B0E0EEE4F0E09081E981FA8163
:1014B0008281892B8C93AAE4B0E0E981FA8184814E
:1014C000958111969C938E93A9E5B0E0E9E5F0E053
:1014D000808180618C93AFE5B0E0EFE5F0E0808142
:1014E00080688C930F900F90CF91DF910895DF93D8
:1014F000CF9300D000D0CDB7DEB79A8389837C83A9
:101500006B83E981FA818081882331F4E2E5F0E0A0
:101510008081EB81FC8180830F900F900F900F9062
:10152000CF91DF910895DF93CF9300D0CDB7DEB791
:1015300089836A838981882321F4E2E5F0E08A8146
:1015400080830F900F90CF91DF9108951F920F929B
:101550000FB60F9211242F933F934F935F936F9386
:101560007F938F939F93AF93BF93EF93FF93DF93FB
:10157000CF93CDB7DEB780913603909137030097B4
:1015800029F0E0913603F09137030995CF91DF916F
:10159000FF91EF91BF91AF919F918F917F916F914B
:1015A0005F914F913F912F910F900FBE0F901F9021
:1015B00018951F920F920FB60F9211242F933F93FD
:1015C0004F935F936F937F938F939F93AF93BF934B
:1015D000EF93FF93DF93CF93CDB7DEB780913403C2
:1015E00090913503009729F0E0913403F091350391
:1015F0000995CF91DF91FF91EF91BF91AF919F91AD
:101600008F917F916F915F914F913F912F910F90AB
:101610000FBE0F901F9018951F920F920FB60F924A
:1016200011242F933F934F935F936F937F938F93E7
:101630009F93AF93BF93EF93FF93DF93CF93CDB778
:10164000DEB78091380390913903009729F0E0913B
:101650003803F09139030995CF91DF91FF91EF9114
:10166000BF91AF919F918F917F916F915F914F91BA
:101670003F912F910F900FBE0F901F901895DF9301
:10168000CF9300D0CDB7DEB79A83898389819A81C1
:10169000009709F4BFC0E981FA81808187708430A6
:1016A000B1F4E981FA8180818873803281F4E98123
:1016B000FA818081982F9295969596959370818165
:1016C0008170880F880F892B843009F4A3C0AFE59F
:1016D000B0E0EFE5F0E0808180688C93E981FA81E9
:1016E00080818770843009F183E062E041E00E94EC
:1016F000900DA5E5B0E0E5E5F0E08081982F9C7FB6
:10170000E981FA8180818770892B8C93E981FA8144
:101710008281938190933B0380933A03ABE5B0E0E1
:10172000EBE5F0E0808180648C93E981FA8180812F
:101730008873803251F183E063E040E00E94900DB5
:10174000A5E5B0E0E5E5F0E08081282F237FE98181
:10175000FA8180818695869586958770882F90E09E
:10176000880F991F880F991F822B8C93E981FA812A
:101770008481958190933D0380933C03ABE5B0E079
:10178000EBE5F0E0808180688C93E981FA818081CB
:10179000982F929596959695937081818170880F78
:1017A000880F892B8430B1F181E062E040E00E9433
:1017B000900DA4E5B0E0E4E5F0E08081282FE98118
:1017C000FA818081982F9295969596959370818154
:1017D0008170880F880F892B882F90E0817090701E
:1017E0000024969587950794969587950794982F4A
:1017F000802D822B8C93E981FA8186819781909349
:101800003F0380933E03ABE5B0E0EBE5F0E0808181
:1018100080628C930F900F90CF91DF910895DF93AA
:10182000CF9300D0CDB7DEB79A838983ABE5B0E024
:10183000EBE5F0E080818F7B8C93ABE5B0E0EBE5EE
:10184000F0E080818F778C93ABE5B0E0EBE5F0E0E2
:1018500080818F7D8C930F900F90CF91DF910895B1
:10186000DF93CF9300D000D0CDB7DEB789836A83F2
:101870008981282F30E03C832B838B819C818130B0
:101880009105A1F02B813C812230310501F18B8142
:101890009C81009791F5A5E5B0E0E5E5F0E0808159
:1018A000982F9C7F8A81892B8C9327C0A5E5B0E077
:1018B000E5E5F0E08081282F237F8A81882F90E062
:1018C000880F991F880F991F822B8C9316C0A4E54F
:1018D000B0E0E4E5F0E08081282F8A81882F90E055
:1018E00081709070002496958795079496958795BA
:1018F0000794982F802D822B8C930F900F900F9030
:101900000F90CF91DF9108951F920F920FB60F9213
:1019100011242F933F934F935F936F937F938F93F4
:101920009F93AF93BF93EF93FF93DF93CF93CDB785
:10193000DEB780913A0390913B03009729F0E09144
:101940003A03F0913B030995CF91DF91FF91EF911D
:10195000BF91AF919F918F917F916F915F914F91C7
:101960003F912F910F900FBE0F901F9018951F92CF
:101970000F920FB60F9211242F933F934F935F93C3
:101980006F937F938F939F93AF93BF93EF93FF9347
:10199000DF93CF93CDB7DEB780913C0390913D03A9
:1019A000009729F0E0913C03F0913D030995CF9118
:1019B000DF91FF91EF91BF91AF919F918F917F91B7
:1019C0006F915F914F913F912F910F900FBE0F90AC
:1019D0001F9018951F920F920FB60F9211242F93FC
:1019E0003F934F935F936F937F938F939F93AF93A7
:1019F000BF93EF93FF93DF93CF93CDB7DEB7809183
:101A00003E0390913F03009729F0E0913E03F0914F
:101A10003F030995CF91DF91FF91EF91BF91AF9176
:101A20009F918F917F916F915F914F913F912F91F6
:101A30000F900FBE0F901F901895DF93CF9300D09B
:101A400000D00F92CDB7DEB789836A834B8389813B
:101A5000843008F05DC08A81883008F059C08B81DD
:101A6000282F30E03D832C838C819D81009731F0BD
:101A70002C813D812130310539F14AC08981882F7F
:101A800090E0880F991FFC01E551FD4FA081B181C5
:101A90008981882F90E0880F991FFC01E551FD4F47
:101AA0000190F081E02D8081482F8A81282F30E03D
:101AB00081E090E0022E02C0880F991F0A94E2F79D
:101AC000809584238C9324C08981882F90E0880F8F
:101AD000991FFC01E551FD4FA081B1818981882FBB
:101AE00090E0880F991FFC01E551FD4F0190F081B6
:101AF000E02D8081482F8A81282F30E081E090E01E
:101B0000022E02C0880F991F0A94E2F7842B8C934F
:101B10000F900F900F900F900F90CF91DF9108953D
:101B2000DF93CF9300D000D00F92CDB7DEB789837B
:101B30006A834B838981843008F05DC08A81883054
:101B400008F059C08B81282F30E03D832C838C8195
:101B50009D81009731F02C813D812130310539F193
:101B60004AC08981882F90E0880F991FFC01ED51B0
:101B7000FD4FA081B1818981882F90E0880F991F46
:101B8000FC01ED51FD4F0190F081E02D8081482F47
:101B90008A81282F30E081E090E0022E02C0880F79
:101BA000991F0A94E2F7809584238C9324C089813D
:101BB000882F90E0880F991FFC01ED51FD4FA08107
:101BC000B1818981882F90E0880F991FFC01ED5128
:101BD000FD4F0190F081E02D8081482F8A81282FD0
:101BE00030E081E090E0022E02C0880F991F0A9435
:101BF000E2F7842B8C930F900F900F900F900F9023
:101C0000CF91DF910895DF93CF9300D0CDB7DEB7AA
:101C100089836A838981843038F58A81883020F508
:101C20008981882F90E0880F991FFC01ED51FD4FAD
:101C3000A081B1818981882F90E0880F991FFC01D4
:101C4000ED51FD4F0190F081E02D8081482F8A8178
:101C5000282F30E081E090E0022E02C0880F991F0B
:101C60000A94E2F784278C930F900F90CF91DF9125
:101C70000895DF93CF9300D000D0CDB7DEB789832E
:101C80006A835C834B838981843018F58A8188302C
:101C900000F58B819C810097E1F08981882F90E08D
:101CA000880F991FFC01ED50FD4F0190F081E02D50
:101CB0008081282F30E08A81882F90E0A90102C01E
:101CC000559547958A95E2F7CA018170EB81FC81B1
:101CD00080830F900F900F900F90CF91DF91089518
:101CE000DF93CF9300D0CDB7DEB789836A83898134
:101CF000843068F48981882F90E0880F991FFC0157
:101D0000E551FD4F0190F081E02D8A8180830F9095
:101D10000F90CF91DF910895DF93CF9300D0CDB78F
:101D2000DEB789836A838981843068F48981882F4A
:101D300090E0880F991FFC01ED51FD4F0190F0815B
:101D4000E02D8A8180830F900F90CF91DF910895CD
:101D5000DF93CF930F92CDB7DEB78983898184302B
:101D6000C0F48981882F90E0880F991FFC01ED5104
:101D7000FD4FA081B1818981882F90E0880F991F44
:101D8000FC01ED51FD4F0190F081E02D80818095A7
:101D90008C930F90CF91DF910895DF93CF9300D074
:101DA0000F92CDB7DEB789837B836A8389818430C4
:101DB00098F48A819B81009779F08981882F90E03F
:101DC000880F991FFC01ED50FD4F0190F081E02D2F
:101DD0008081EA81FB8180830F900F900F90CF91DB
:101DE000DF910895DF93CF9300D00F92CDB7DEB788
:101DF00089836A834B838981843008F052C08A8149
:101E0000803108F04EC08B81863008F04AC089814D
:101E1000882F90E0880F991FFC01ED51FD4FA081A4
:101E2000B1818981882F90E0880F991FFC01ED51C5
:101E3000FD4F0190F081E02D8081482F8B81282F6C
:101E400030E08FE090E002C0880F991F2A95E2F7FA
:101E5000809584238C938981882F90E0880F991F27
:101E6000FC01ED51FD4FA081B1818981882F90E067
:101E7000880F991FFC01ED51FD4F0190F081E02D7D
:101E80008081482F8A81282F30E08B81882F90E035
:101E9000B90102C0660F771F8A95E2F7CB01842B48
:101EA0008C930F900F900F90CF91DF910895DF9357
:101EB000CF9300D000D00F92CDB7DEB78A837C835A
:101EC0006B834D838A81882F90E0880F991FFC01D6
:101ED000ED50FD4F0190F081E02D808189838A8152
:101EE0008430C0F48B819C810097A1F08D81863075
:101EF00088F48981282F30E08D81882F90E0A90116
:101F000002C0559547958A95E2F7CA018F70EB811B
:101F1000FC8180830F900F900F900F900F90CF91C6
:101F2000DF910895DF93CF9300D00F92CDB7DEB746
:101F300089836A834B8389818430D0F48981882F97
:101F400090E0880F991FFC01E551FD4F0190F08151
:101F5000E02D8A8180838981882F90E0880F991FE6
:101F6000FC01ED51FD4F0190F081E02D8B818083CC
:101F70000F900F900F90CF91DF910895DF93CF9343
:101F800000D000D0CDB7DEB789836A834B832C8322
:101F90008981843068F48A81883050F489816A812B
:101FA0004C810E94900D89816A814B810E941D0D98
:101FB0000F900F900F900F90CF91DF910895DF93C6
:101FC000CF93CDB7DEB7A7E2B0E0E7E2F0E08081E3
:101FD0008F7380648C93A6E2B0E0E6E2F0E080814B
:101FE00087608C93A7E2B0E0E7E2F0E080818F7D2C
:101FF0008C93A6E2B0E0E6E2F0E0808180688C930A
:10200000CF91DF910895DF93CF9300D00F92CDB79A
:10201000DEB789837B836A838A819B81009799F1EC
:102020008981883080F5A7E2B0E0E7E2F0E08081C6
:10203000982F907E8981892B8C93A6E2B0E0E6E20E
:10204000F0E0808180648C93E6E2F0E0808182950C
:10205000869586958370882F90E081709070882394
:1020600099F7E4E2F0E08081282F30E0E5E2F0E04B
:102070008081882F90E0982F8827822B932BEA81EC
:10208000FB81918380830F900F900F90CF91DF9110
:102090000895DF93CF9300D0CDB7DEB79A838983BD
:1020A00089819A81009791F0E4E2F0E08081282F05
:1020B00030E0E5E2F0E08081882F90E0982F8827DB
:1020C000822B932BE981FA81918380830F900F906B
:1020D000CF91DF910895DF93CF9300D0CDB7DEB7D6
:1020E0009A838983E7E2F0E080818F71E981FA8148
:1020F00080830F900F90CF91DF910895DF93CF935E
:102100000F92CDB7DEB78983A7E2B0E0E7E2F0E057
:102110008081982F907E8981892B8C930F90CF910D
:10212000DF910895DF93CF93CDB7DEB710924203CE
:10213000A7E2B0E0E7E2F0E08081282F207E8091E6
:102140004203882F90E0FC01E550FD4F8081822BF7
:102150008C93A6E2B0E0E6E2F0E0808180648C93AC
:10216000CF91DF9108951F920F920FB60F92112415
:102170002F933F934F935F936F937F938F939F938F
:10218000AF93BF93EF93FF93DF93CF93CDB7DEB7BA
:102190008091400390914103009729F0E091400322
:1021A000F09141030995CF91DF91FF91EF91BF919C
:1021B000AF919F918F917F916F915F914F913F91DF
:1021C0002F910F900FBE0F901F901895DF93CF9314
:1021D00000D0CDB7DEB79A83898389819A81009731
:1021E00009F44AC0E981FA818481829586958695B1
:1021F0008370282FE981FA8184818770982F822F3C
:10220000692F41E00E941D0DE981FA818581829547
:10221000869586958370282FE981FA818481869539
:10222000869586958770982F822F692F41E00E94AE
:102230001D0DE981FA8186818370282FE981FA8159
:1022400085818770982F822F692F41E00E941D0D94
:10225000E981FA818681869586958370282FE981A8
:10226000FA8185818695869586958770982F822F2D
:10227000692F41E00E941D0D0F900F90CF91DF91CB
:1022800008950F931F93DF93CF93CDB7DEB7C85454
:10229000D0400FB6F894DEBF0FBECDBFFE01E95BA4
:1022A000FF4F91838083FE01E95BFF4F8081918125
:1022B000009709F421C3FE01E95BFF4F0190F08113
:1022C000E02D84818295869586958370282FFE0166
:1022D000E95BFF4F0190F081E02D84818770982F9A
:1022E000822F692F41E00E94900DFE01ED5BFF4FB0
:1022F00080E090E0A0E2B1E480839183A283B38385
:102300008E01015C1F4FFE01ED5BFF4F608171810B
:102310008281938120E030E04AEF54E40E941F0262
:10232000DC01CB01F80180839183A283B383FE019A
:10233000FF96608171818281938120E030E040E8E6
:102340005FE30E94250488232CF481E090E09EAF97
:102350008DAF46C0FE01FF966081718182819381BD
:1023600020E03FEF4FE757E40E94C503181664F5DD
:10237000FE01ED5BFF4F608171818281938120E0DE
:1023800030E040E251E40E941F02DC01CB01BC01BD
:10239000CD010E944900DC01CB019EAF8DAF0FC083
:1023A00088EC90E09CAF8BAF8BAD9CAD0197F1F7C3
:1023B0009CAF8BAF8DAD9EAD01979EAF8DAF8DADB8
:1023C0009EAD009769F716C0FE01FF96608171818E
:1023D000828193810E944900DC01CB019EAF8DAFC9
:1023E0008DAD9EAD9AAF89AF89AD9AAD0197F1F7EA
:1023F0009AAF89AFFE01E95BFF4F0190F081E02DBC
:1024000084818295869586958370282FFE01E95BED
:10241000FF4F0190F081E02D84818770982F822FEB
:10242000692F40E00E94900DFE01E95BFF4F019093
:10243000F081E02D85818295869586958370282F81
:10244000FE01E95BFF4F0190F081E02D84818695CC
:10245000869586958770982F822F692F41E00E947C
:10246000900D80E090E0A0E2B1E48DAB9EABAFAB0D
:10247000B8AF6DA97EA98FA998AD20E030E04AEFF2
:1024800054E40E941F02DC01CB0189AB9AABABABD9
:10249000BCAB69A97AA98BA99CA920E030E040E8EF
:1024A0005FE30E94250488232CF481E090E098AB40
:1024B0008FA73FC069A97AA98BA99CA920E03FEF0B
:1024C0004FE757E40E94C50318164CF56DA97EA985
:1024D0008FA998AD20E030E040E251E40E941F0255
:1024E000DC01CB01BC01CD010E944900DC01CB0124
:1024F00098AB8FA70FC088EC90E09EA78DA78DA505
:102500009EA50197F1F79EA78DA78FA598A9019782
:1025100098AB8FA78FA598A9009769F714C069A9F0
:102520007AA98BA99CA90E944900DC01CB0198AB38
:102530008FA78FA598A99CA78BA78BA59CA5019772
:10254000F1F79CA78BA7FE01E95BFF4F0190F0819B
:10255000E02D85818295869586958370282FFE01D2
:10256000E95BFF4F0190F081E02D8481869586958F
:1025700086958770982F822F692F40E00E94900DDA
:10258000FE01E95BFF4F0190F081E02D86818370B1
:10259000282FFE01E95BFF4F0190F081E02D85813E
:1025A0008770982F822F692F41E00E94900D80E064
:1025B00090E0A0E2B1E48FA398A7A9A7BAA76FA162
:1025C00078A589A59AA520E030E04AEF54E40E945E
:1025D0001F02DC01CB018BA39CA3ADA3BEA36BA107
:1025E0007CA18DA19EA120E030E040E85FE30E9445
:1025F000250488232CF481E090E09AA389A33FC0AE
:102600006BA17CA18DA19EA120E03FEF4FE757E495
:102610000E94C50318164CF56FA178A589A59AA547
:1026200020E030E040E251E40E941F02DC01CB01D7
:10263000BC01CD010E944900DC01CB019AA389A312
:102640000FC088EC90E098A38F8F8F8D98A1019791
:10265000F1F798A38F8F89A19AA101979AA389A3D3
:1026600089A19AA1009769F714C06BA17CA18DA1E3
:102670009EA10E944900DC01CB019AA389A389A1F4
:102680009AA19E8F8D8F8D8D9E8D0197F1F79E8FD4
:102690008D8FFE01E95BFF4F0190F081E02D868177
:1026A0008370282FFE01E95BFF4F0190F081E02D40
:1026B00085818770982F822F692F40E00E94900DAE
:1026C000FE01E95BFF4F0190F081E02D8681869548
:1026D00086958370282FFE01E95BFF4F0190F08102
:1026E000E02D85818695869586958770982F822F17
:1026F000692F41E00E94900D80E090E0A0E2B1E4FB
:10270000898F9A8FAB8FBC8F698D7A8D8B8D9C8DC5
:1027100020E030E04AEF54E40E941F02DC01CB01CC
:102720008D8B9E8BAF8BB88F6D897E898F89988DAD
:1027300020E030E040E85FE30E94250488232CF489
:1027400081E090E09C8B8B8B3FC06D897E898F8967
:10275000988D20E03FEF4FE757E40E94C50318161D
:102760004CF5698D7A8D8B8D9C8D20E030E040E2B8
:1027700051E40E941F02DC01CB01BC01CD010E948B
:102780004900DC01CB019C8B8B8B0FC088EC90E067
:102790009A8B898B89899A890197F1F79A8B898B12
:1027A0008B899C8901979C8B8B8B8B899C8900974B
:1027B00069F714C06D897E898F89988D0E944900C0
:1027C000DC01CB019C8B8B8B8B899C89988B8F87B1
:1027D0008F8598890197F1F7988B8F87FE01E95BC8
:1027E000FF4F0190F081E02D86818695869583705C
:1027F000282FFE01E95BFF4F0190F081E02D8581DC
:102800008695869586958770982F822F692F40E050
:102810000E94900D80E090E0A0E2B1E48B879C875D
:10282000AD87BE876B857C858D859E8520E030E0F9
:102830004AEF54E40E941F02DC01CB018F8398878A
:10284000A987BA876F81788589859A8520E030E0ED
:1028500040E85FE30E94250488232CF481E090E0A7
:102860009E838D833FC06F81788589859A8520E01E
:102870003FEF4FE757E40E94C50318164CF56B85F0
:102880007C858D859E8520E030E040E251E40E9409
:102890001F02DC01CB01BC01CD010E944900DC011B
:1028A000CB019E838D830FC088EC90E09C838B834B
:1028B0008B819C810197F1F79C838B838D819E8115
:1028C00001979E838D838D819E81009769F714C047
:1028D0006F81788589859A850E944900DC01CB014A
:1028E0009E838D838D819E819A83898389819A813C
:1028F0000197F1F79A838983C85BDF4F0FB6F8948D
:10290000DEBF0FBECDBFCF91DF911F910F91089514
:102910000F931F93DF93CF93CDB7DEB7C854D0404A
:102920000FB6F894DEBF0FBECDBFFE01E95BFF4FCF
:1029300091838083FE01E95BFF4F80819181009745
:1029400009F421C3FE01E95BFF4F0190F081E02D06
:1029500086818370282FFE01E95BFF4F0190F08193
:10296000E02D85818770982F822F692F41E00E948A
:10297000900DFE01ED5BFF4F80E090E0A0E2B1E43E
:1029800080839183A283B3838E01015C1F4FFE017C
:10299000ED5BFF4F608171818281938120E030E0A7
:1029A0004AEF54E40E941F02DC01CB01F80180834E
:1029B0009183A283B383FE01FF966081718182813E
:1029C000938120E030E040E85FE30E942504882303
:1029D0002CF481E090E09EAF8DAF46C0FE01FF96E3
:1029E000608171818281938120E03FEF4FE757E45E
:1029F0000E94C503181664F5FE01ED5BFF4F608170
:102A000071818281938120E030E040E251E40E94B4
:102A10001F02DC01CB01BC01CD010E944900DC0199
:102A2000CB019EAF8DAF0FC088EC90E09CAF8BAF19
:102A30008BAD9CAD0197F1F79CAF8BAF8DAD9EAD8B
:102A400001979EAF8DAF8DAD9EAD009769F716C013
:102A5000FE01FF9660817181828193810E9449000D
:102A6000DC01CB019EAF8DAF8DAD9EAD9AAF89AF2E
:102A700089AD9AAD0197F1F79AAF89AFFE01E95B95
:102A8000FF4F0190F081E02D86818370282FFE0199
:102A9000E95BFF4F0190F081E02D85818770982FD1
:102AA000822F692F40E00E94900DFE01E95BFF4FED
:102AB0000190F081E02D8681869586958370282F80
:102AC000FE01E95BFF4F0190F081E02D8581869545
:102AD000869586958770982F822F692F41E00E94F6
:102AE000900D80E090E0A0E2B1E48DAB9EABAFAB87
:102AF000B8AF6DA97EA98FA998AD20E030E04AEF6C
:102B000054E40E941F02DC01CB0189AB9AABABAB52
:102B1000BCAB69A97AA98BA99CA920E030E040E868
:102B20005FE30E94250488232CF481E090E098ABB9
:102B30008FA73FC069A97AA98BA99CA920E03FEF84
:102B40004FE757E40E94C50318164CF56DA97EA9FE
:102B50008FA998AD20E030E040E251E40E941F02CE
:102B6000DC01CB01BC01CD010E944900DC01CB019D
:102B700098AB8FA70FC088EC90E09EA78DA78DA57E
:102B80009EA50197F1F79EA78DA78FA598A90197FC
:102B900098AB8FA78FA598A9009769F714C069A96A
:102BA0007AA98BA99CA90E944900DC01CB0198ABB2
:102BB0008FA78FA598A99CA78BA78BA59CA50197EC
:102BC000F1F79CA78BA7FE01E95BFF4F0190F08115
:102BD000E02D8681869586958370282FFE01E95B1E
:102BE000FF4F0190F081E02D858186958695869531
:102BF0008770982F822F692F40E00E94900DFE0170
:102C0000E95BFF4F0190F081E02D858182958695EB
:102C100086958370282FFE01E95BFF4F0190F081BC
:102C2000E02D84818695869586958770982F822FD2
:102C3000692F41E00E94900D80E090E0A0E2B1E4B5
:102C40008FA398A7A9A7BAA76FA178A589A59AA5C8
:102C500020E030E04AEF54E40E941F02DC01CB0187
:102C60008BA39CA3ADA3BEA36BA17CA18DA19EA1B0
:102C700020E030E040E85FE30E94250488232CF444
:102C800081E090E09AA389A33FC06BA17CA18DA1B4
:102C90009EA120E03FEF4FE757E40E94C5031816BE
:102CA0004CF56FA178A589A59AA520E030E040E217
:102CB00051E40E941F02DC01CB01BC01CD010E9446
:102CC0004900DC01CB019AA389A30FC088EC90E0F6
:102CD00098A38F8F8F8D98A10197F1F798A38F8F6D
:102CE00089A19AA101979AA389A389A19AA1009782
:102CF00069F714C06BA17CA18DA19EA10E9449001F
:102D0000DC01CB019AA389A389A19AA19E8F8D8F03
:102D10008D8D9E8D0197F1F79E8F8D8FFE01E95B62
:102D2000FF4F0190F081E02D8581829586958695F3
:102D30008370282FFE01E95BFF4F0190F081E02DA9
:102D400084818695869586958770982F822F692F26
:102D500040E00E94900DFE01E95BFF4F0190F08181
:102D6000E02D84818295869586958370282FFE01BB
:102D7000E95BFF4F0190F081E02D84818770982FEF
:102D8000822F692F41E00E94900D80E090E0A0E248
:102D9000B1E4898F9A8FAB8FBC8F698D7A8D8B8DC3
:102DA0009C8D20E030E04AEF54E40E941F02DC01D9
:102DB000CB018D8B9E8BAF8BB88F6D897E898F8970
:102DC000988D20E030E040E85FE30E9425048823EE
:102DD0002CF481E090E09C8B8B8B3FC06D897E89C9
:102DE0008F89988D20E03FEF4FE757E40E94C5039D
:102DF00018164CF5698D7A8D8B8D9C8D20E030E016
:102E000040E251E40E941F02DC01CB01BC01CD0174
:102E10000E944900DC01CB019C8B8B8B0FC088EC9E
:102E200090E09A8B898B89899A890197F1F79A8B1F
:102E3000898B8B899C8901979C8B8B8B8B899C8937
:102E4000009769F714C06D897E898F89988D0E94DB
:102E50004900DC01CB019C8B8B8B8B899C89988BE7
:102E60008F878F8598890197F1F7988B8F87FE015F
:102E7000E95BFF4F0190F081E02D8481829586957A
:102E800086958370282FFE01E95BFF4F0190F0814A
:102E9000E02D84818770982F822F692F40E00E9457
:102EA000900D80E090E0A0E2B1E48B879C87AD8735
:102EB000BE876B857C858D859E8520E030E04AEF5E
:102EC00054E40E941F02DC01CB018F839887A987FD
:102ED000BA876F81788589859A8520E030E040E85F
:102EE0005FE30E94250488232CF481E090E09E8318
:102EF0008D833FC06F81788589859A8520E03FEF7B
:102F00004FE757E40E94C50318164CF56B857C8586
:102F10008D859E8520E030E040E251E40E941F0252
:102F2000DC01CB01BC01CD010E944900DC01CB01D9
:102F30009E838D830FC088EC90E09C838B838B8174
:102F40009C810197F1F79C838B838D819E810197F2
:102F50009E838D838D819E81009769F714C06F8158
:102F6000788589859A850E944900DC01CB019E8382
:102F70008D838D819E819A83898389819A8101972E
:102F8000F1F79A838983C85BDF4F0FB6F894DEBFF1
:102F90000FBECDBFCF91DF911F910F910895DF93A9
:102FA000CF93CDB7DEB768970FB6F894DEBF0FBEEC
:102FB000CDBF9C8B8B8B4D8B5E8B6F8B788F1F86E1
:102FC000188A198A1A8A81C08B899C890E944111AA
:102FD00080E090E0A0E0B0E48B879C87AD87BE875F
:102FE0006B857C858D859E8520E030E04AEF54E43A
:102FF0000E941F02DC01CB018F839887A987BA87C3
:103000006F81788589859A8520E030E040E85FE32C
:103010000E94250488232CF481E090E09E838D8318
:103020003FC06F81788589859A8520E03FEF4FE723
:1030300057E40E94C50318164CF56B857C858D8579
:103040009E8520E030E040E251E40E941F02DC0156
:10305000CB01BC01CD010E944900DC01CB019E8364
:103060008D830FC088EC90E09C838B838B819C8147
:103070000197F1F79C838B838D819E8101979E83BD
:103080008D838D819E81009769F714C06F8178854B
:1030900089859A850E944900DC01CB019E838D833E
:1030A0008D819E819A83898389819A810197F1F725
:1030B0009A8389838F859889A989BA890196A11DE8
:1030C000B11D8F87988BA98BBA8B2F853889498939
:1030D0005A898D899E89AF89B88D281739074A0783
:1030E0005B0708F471CF68960FB6F894DEBF0FBE89
:1030F000CDBFCF91DF910895DF93CF93CDB7DEB7EA
:103100002A970FB6F894DEBF0FBECDBF9E838D8386
:103110004F83588769877A8719821A821B821C829B
:103120000FC08D819E810E94881489819A81AB8114
:10313000BC810196A11DB11D89839A83AB83BC8399
:1031400029813A814B815C818F819885A985BA85D7
:10315000281739074A075B0720F32A960FB6F89419
:10316000DEBF0FBECDBFCF91DF910895DF93CF9328
:1031700000D000D00F92CDB7DEB79B838A8319822F
:103180008A819B81009709F455C0EA81FB81808187
:103190008F70882F90E0843091050CF04BC0EA814D
:1031A000FB81808182958F708770882F90E08830B6
:1031B00091050CF03FC0EA81FB818081881F882740
:1031C000881F282F30E03D832C838C819D810097C0
:1031D000D1F02C813D812130310551F5EA81FB810F
:1031E00080818F70282FEA81FB81808182958F708A
:1031F0008770982F822F692F41E020E00E94BE0F38
:1032000081E0898318C0EA81FB8180818F70282F3B
:10321000EA81FB81808182958F708770982F822F41
:10322000692F41E021E00E94BE0F81E0898303C045
:10323000198201C0198289810F900F900F900F9011
:103240000F90CF91DF910895DF93CF9300D000D0FE
:103250000F92CDB7DEB79B838A8319828A819B81C7
:10326000009709F452C0EA81FB8180818F70882F1A
:1032700090E0843091050CF048C0EA81FB818081A8
:1032800082958F708770882F90E088309105ECF5DB
:10329000EA81FB818081881F8827881F282F30E0E2
:1032A0003D832C838C819D810097C9F02C813D81C9
:1032B0002130310541F5EA81FB8180818F70282F13
:1032C000EA81FB81808182958F708770982F822F91
:1032D000692F40E00E94900D81E0898317C0EA8148
:1032E000FB8180818F70282FEA81FB81808182950C
:1032F0008F708770982F822F692F41E00E94900D68
:1033000081E0898303C0198201C0198289810F90ED
:103310000F900F900F900F90CF91DF910895DF9352
:10332000CF9300D000D00F92CDB7DEB79B838A83B6
:1033300019828A819B81009709F452C0EA81FB813E
:1033400080818F70882F90E0843091050CF048C008
:10335000EA81FB81808182958F708770882F90E051
:1033600088309105ECF5EA81FB818081881F8827F0
:10337000881F282F30E03D832C838C819D8100970E
:10338000C9F02C813D812130310541F5EA81FB8175
:1033900080818F70282FEA81FB81808182958F70D8
:1033A0008770982F822F692F41E00E94900D81E055
:1033B000898317C0EA81FB8180818F70282FEA8181
:1033C000FB81808182958F708770982F822F692F63
:1033D00040E00E94900D81E0898303C0198201C002
:1033E000198289810F900F900F900F900F90CF91BD
:1033F000DF910895DF93CF9300D00F92CDB7DEB762
:103400009B838A8319828A819B81009739F1EA81A3
:10341000FB8180818F70882F90E084309105F4F4D7
:10342000EA81FB81808182958F708770882F90E080
:10343000883091059CF4EA81FB8180818F70282F70
:10344000EA81FB81808182958F708770982F822F0F
:10345000692F0E94030E81E0898301C0198289814E
:103460000F900F900F90CF91DF910895DF93CF933E
:1034700000D00F92CDB7DEB79B838A8319828A81F1
:103480009B81009741F1EA81FB8180818F70882FB9
:1034900090E084309105FCF4EA81FB818081829583
:1034A0008F708770882F90E088309105A4F4EA81AE
:1034B000FB8180818F70282FEA81FB81808182953A
:1034C0008F708770982F822F692F9E012F5F3F4F3B
:1034D000A9010E94390E89810F900F900F90CF9112
:1034E000DF910895DF93CF9300D0CDB7DEB79A83F5
:1034F000898380E060E040E00E941D0D0E94DF0FA4
:103500000F900F90CF91DF910895DF93CF93CDB7B8
:10351000DEB7A7E2B0E0E7E2F0E08081807E8C9346
:10352000A6E2B0E0E6E2F0E0808180648C93CF9187
:10353000DF910895DF93CF93CDB7DEB729970FB60C
:10354000F894DEBF0FBECDBF98878F831E821D8289
:1035500080E090E0A0E0B0E089839A83AB83BC83F5
:10356000A7E2B0E0E7E2F0E08081807E8C93A6E203
:10357000B0E0E6E2F0E0808180648C93E6E2F0E087
:1035800080818295869586958370882F90E08170E2
:103590009070882399F7CE0105960E9449108D817D
:1035A0009E81CC01A0E0B0E0BC01CD010E940705E6
:1035B000DC01CB01BC01CD0120E030E048E453E464
:1035C0000E941903DC01CB0189839A83AB83BC83FE
:1035D000198669817A818B819C8123E333E343E5FA
:1035E00050E40E94F503882314F081E0898781E08C
:1035F00099858927882F90E0EF81F8858083299627
:103600000FB6F894DEBF0FBECDBFCF91DF91089506
:10361000DF93CF9300D0CDB7DEB79A8389838981BA
:103620009A81009721F089819A810E94411C0F9014
:103630000F90CF91DF910895DF93CF9300D00F9239
:10364000CDB7DEB79A8389836B8389819A8100978E
:1036500029F089819A816B810E94791E0F900F90C9
:103660000F90CF91DF910895DF93CF9300D00F9209
:10367000CDB7DEB79A8389836B8389819A8100975E
:1036800029F089819A816B810E94D51F0F900F903C
:103690000F90CF91DF910895DF93CF9300D000D0AA
:1036A000CDB7DEB79A8389836B834C8389819A81F6
:1036B000009781F08B81813468F48C81803150F4E3
:1036C0009B818C81890F8068282F89819A81622F44
:1036D0000E941C1B0F900F900F900F90CF91DF91C5
:1036E0000895DF93CF9300D000D00F92CDB7DEB70F
:1036F0009A8389836B834C832D8389819A816C8122
:103700004D810E944C1B89819A816B810E94341BE0
:103710000F900F900F900F900F90CF91DF91089521
:10372000DF93CF9300D000D00F92CDB7DEB79B834D
:103730008A837D836C838A819B81009711F18C81C0
:103740009D810097F1F0198211C08981282F30E006
:103750008C819D81FC01E20FF31F208189818F5FA5
:1037600089838A819B81622F0E94341B8981282F43
:1037700030E08C819D81FC01E20FF31F8081882362
:1037800021F70F900F900F900F900F90CF91DF9136
:103790000895DF93CF9300D000D000D0CDB7DEB72F
:1037A0009A8389837C836B834D832E8389819A815D
:1037B0006D814E810E944C1B89819A812B813C81B5
:1037C000B9010E94901B26960FB6F894DEBF0FBE7B
:1037D000CDBFCF91DF910895DF93CF9300D0CDB7C8
:1037E000DEB79A83898389819A816CE10E941C1BD0
:1037F0000F900F90CF91DF910895DF93CF9300D07A
:10380000CDB7DEB79A83898389819A8168E10E9466
:103810001C1B0F900F90CF91DF910895DF93CF93F2
:1038200000D0CDB7DEB79A83898389819A8164E11C
:103830000E941C1B0F900F90CF91DF910895DF9392
:10384000CF9300D0CDB7DEB79A83898389819A81DF
:1038500060E10E941C1B0F900F90CF91DF910895A3
:10386000DF93CF9300D0CDB7DEB79A838983898168
:103870009A8161E00E941C1B0F900F90CF91DF9105
:103880000895DF93CF93CDB7DEB7EA970FB6F894DC
:10389000DEBF0FBECDBF9AAF89AFE9ADFAAD808173
:1038A00083706FEF0E94700EE9ADFAAD808186954E
:1038B00086958370282FE9ADFAAD81818770982FA6
:1038C000822F692F41E00E941D0DE9ADFAAD808184
:1038D00082958F708370282FE9ADFAAD818186952E
:1038E000869586958770982F822F692F41E00E94D8
:1038F0001D0DE9ADFAAD8081829586958695837020
:10390000282FE9ADFAAD8181982F929596959695DD
:10391000937082818170880F880F892B982F822F56
:10392000692F41E00E941D0D80E090E0A0EFB1E41E
:103930008DAB9EABAFABB8AF6DA97EA98FA998AD8B
:1039400020E030E04AEF54E40E941F02DC01CB018A
:1039500089AB9AABABABBCAB69A97AA98BA99CA983
:1039600020E030E040E85FE30E94250488232CF447
:1039700081E090E098AB8FA73FC069A97AA98BA995
:103980009CA920E03FEF4FE757E40E94C5031816BB
:103990004CF56DA97EA98FA998AD20E030E040E2FA
:1039A00051E40E941F02DC01CB01BC01CD010E9449
:1039B0004900DC01CB0198AB8FA70FC088EC90E0E9
:1039C0009EA78DA78DA59EA50197F1F79EA78DA710
:1039D0008FA598A9019798AB8FA78FA598A9009755
:1039E00069F714C069A97AA98BA99CA90E9449000A
:1039F000DC01CB0198AB8FA78FA598A99CA78BA7BB
:103A00008BA59CA50197F1F79CA78BA789AD9AADD3
:103A100068E30E941C1B80E090E0A0E8BFE38FA356
:103A200098A7A9A7BAA76FA178A589A59AA520E00C
:103A300030E04AEF54E40E941F02DC01CB018BA36B
:103A40009CA3ADA3BEA36BA17CA18DA19EA120E0F0
:103A500030E040E85FE30E94250488232CF481E0F5
:103A600090E09AA389A33FC06BA17CA18DA19EA1E8
:103A700020E03FEF4FE757E40E94C50318164CF5CE
:103A80006FA178A589A59AA520E030E040E251E435
:103A90000E941F02DC01CB01BC01CD010E94490044
:103AA000DC01CB019AA389A30FC088EC90E098A316
:103AB0008F8F8F8D98A10197F1F798A38F8F89A190
:103AC0009AA101979AA389A389A19AA1009769F75E
:103AD00014C06BA17CA18DA19EA10E944900DC01B4
:103AE000CB019AA389A389A19AA19E8F8D8F8D8DD9
:103AF0009E8D0197F1F79E8F8D8F89AD9AAD6CE009
:103B00000E941C1B80E090E0A0E8BFE3898F9A8FA1
:103B1000AB8FBC8F698D7A8D8B8D9C8D20E030E0D2
:103B20004AEF54E40E941F02DC01CB018D8B9E8B77
:103B3000AF8BB88F6D897E898F89988D20E030E0BA
:103B400040E85FE30E94250488232CF481E090E0A4
:103B50009C8B8B8B3FC06D897E898F89988D20E0EF
:103B60003FEF4FE757E40E94C50318164CF5698DE7
:103B70007A8D8B8D9C8D20E030E040E251E40E94F4
:103B80001F02DC01CB01BC01CD010E944900DC0118
:103B9000CB019C8B8B8B0FC088EC90E09A8B898B30
:103BA00089899A890197F1F79A8B898B8B899C89EE
:103BB00001979C8B8B8B8B899C89009769F714C02C
:103BC0006D897E898F89988D0E944900DC01CB0127
:103BD0009C8B8B8B8B899C89988B8F878F85988901
:103BE0000197F1F7988B8F8789AD9AAD61E00E94BC
:103BF0001C1B80E090E0A0E8BFE38B879C87AD872B
:103C0000BE876B857C858D859E8520E030E04AEF00
:103C100054E40E941F02DC01CB018F839887A9879F
:103C2000BA876F81788589859A8520E030E040E801
:103C30005FE30E94250488232CF481E090E09E83BA
:103C40008D833FC06F81788589859A8520E03FEF1D
:103C50004FE757E40E94C50318164CF56B857C8529
:103C60008D859E8520E030E040E251E40E941F02F5
:103C7000DC01CB01BC01CD010E944900DC01CB017C
:103C80009E838D830FC088EC90E09C838B838B8117
:103C90009C810197F1F79C838B838D819E81019795
:103CA0009E838D838D819E81009769F714C06F81FB
:103CB000788589859A850E944900DC01CB019E8325
:103CC0008D838D819E819A83898389819A810197D1
:103CD000F1F79A83898389AD9AAD66E00E941C1B37
:103CE000EA960FB6F894DEBF0FBECDBFCF91DF913D
:103CF0000895DF93CF93CDB7DEB76F970FB6F894E3
:103D0000DEBF0FBECDBF9E8F8D8F6F8FED8DFE8D71
:103D10008081869586958370282FED8DFE8D81811B
:103D20008770982F822F692F40E00E94900DED8DB3
:103D3000FE8D808182958F708370282FED8DFE8D92
:103D400081818695869586958770982F822F692F19
:103D500040E00E94900DED8DFE8D808183706F8D0F
:103D60000E948C0EED8DFE8D8081829586958695C4
:103D70008370282FED8DFE8D8181982F92959695D9
:103D80009695937082818170880F880F892B982F68
:103D9000822F692F41E00E94900D80E090E0A0E822
:103DA000BFE3898F9A8FAB8FBC8F698D7A8D8B8D96
:103DB0009C8D20E030E04AEF54E40E941F02DC01B9
:103DC000CB018D8B9E8BAF8BB88F6D897E898F8950
:103DD000988D20E030E040E85FE30E9425048823CE
:103DE0002CF481E090E09C8B8B8B3FC06D897E89A9
:103DF0008F89988D20E03FEF4FE757E40E94C5037D
:103E000018164CF5698D7A8D8B8D9C8D20E030E0F5
:103E100040E251E40E941F02DC01CB01BC01CD0154
:103E20000E944900DC01CB019C8B8B8B0FC088EC7E
:103E300090E09A8B898B89899A890197F1F79A8BFF
:103E4000898B8B899C8901979C8B8B8B8B899C8917
:103E5000009769F714C06D897E898F89988D0E94BB
:103E60004900DC01CB019C8B8B8B8B899C89988BC7
:103E70008F878F8598890197F1F7988B8F87ED8DC4
:103E8000FE8D80818295869586958370282FED8D95
:103E9000FE8D8181982F929596959695937082814B
:103EA0008170880F880F892B982F822F692F40E00F
:103EB0000E94900D80E090E0A0E2B1E48B879C87A7
:103EC000AD87BE876B857C858D859E8520E030E043
:103ED0004AEF54E40E941F02DC01CB018F839887D4
:103EE000A987BA876F81788589859A8520E030E037
:103EF00040E85FE30E94250488232CF481E090E0F1
:103F00009E838D833FC06F81788589859A8520E067
:103F10003FEF4FE757E40E94C50318164CF56B8539
:103F20007C858D859E8520E030E040E251E40E9452
:103F30001F02DC01CB01BC01CD010E944900DC0164
:103F4000CB019E838D830FC088EC90E09C838B8394
:103F50008B819C810197F1F79C838B838D819E815E
:103F600001979E838D838D819E81009769F714C090
:103F70006F81788589859A850E944900DC01CB0193
:103F80009E838D838D819E819A83898389819A8185
:103F90000197F1F79A8389836F960FB6F894DEBF85
:103FA0000FBECDBFCF91DF910895DF93CF93CDB7F3
:103FB000DEB761970FB6F894DEBF0FBECDBF988B0A
:103FC0008F87698BEF85F8898081869586958370C8
:103FD000282FEF85F88981818770982F822F692F8C
:103FE00041E00E94900DEF85F889808182958F7065
:103FF0008370282FEF85F88981818695869586952F
:104000008770982F822F692F40E00E94900DEF85D6
:10401000F8898081837069890E948C0EEF85F88908
:1040200080818295869586958370282FEF85F88903
:104030008181982F92959695969593708281817043
:10404000880F880F892B982F822F692F41E00E94BB
:10405000900D80E090E0A0E8BFE38B879C87AD8760
:10406000BE876B857C858D859E8520E030E04AEF9C
:1040700054E40E941F02DC01CB018F839887A9873B
:10408000BA876F81788589859A8520E030E040E89D
:104090005FE30E94250488232CF481E090E09E8356
:1040A0008D833FC06F81788589859A8520E03FEFB9
:1040B0004FE757E40E94C50318164CF56B857C85C5
:1040C0008D859E8520E030E040E251E40E941F0291
:1040D000DC01CB01BC01CD010E944900DC01CB0118
:1040E0009E838D830FC088EC90E09C838B838B81B3
:1040F0009C810197F1F79C838B838D819E81019731
:104100009E838D838D819E81009769F714C06F8196
:10411000788589859A850E944900DC01CB019E83C0
:104120008D838D819E819A83898389819A8101976C
:10413000F1F79A838983EF85F88980818295869546
:1041400086958370282FEF85F8898181982F929525
:1041500096959695937082818170880F880F892B30
:10416000982F822F692F40E00E94900D61960FB624
:10417000F894DEBF0FBECDBFCF91DF910895DF93DE
:10418000CF93CDB7DEB761970FB6F894DEBF0FBE01
:10419000CDBF9D878C874E875F87688B798B8BE03F
:1041A000FE013196DF01982F1D929A95E9F7ADB780
:1041B000BEB71A970FB6F894BEBF0FBEADBFEDB72E
:1041C000FEB73196CE010196918380838BE090E01B
:1041D0009383828380E690E0958384838E859F8598
:1041E000A889B98986839783A087B1870E94762E94
:1041F0008DB79EB70A960FB6F8949EBF0FBE8DBFBF
:104200008C859D859E012F5F3F4FB9010E94901BB9
:1042100061960FB6F894DEBF0FBECDBFCF91DF9190
:1042200008950F93DF93CF93CDB7DEB766970FB6A0
:10423000F894DEBF0FBECDBF988B8F87498B5A8B0A
:104240006B8B7C8B2D8B0E8B9D898E89890F806863
:10425000282F8F859889622F0E941C1B80E090E098
:10426000ACE0B2E48B879C87AD87BE876B857C858D
:104270008D859E8520E030E04AEF54E40E941F02C5
:10428000DC01CB018F839887A987BA876F817885F6
:1042900089859A8520E030E040E85FE30E942504AC
:1042A00088232CF481E090E09E838D833FC06F8152
:1042B000788589859A8520E03FEF4FE757E40E9493
:1042C000C50318164CF56B857C858D859E8520E091
:1042D00030E040E251E40E941F02DC01CB01BC014E
:1042E000CD010E944900DC01CB019E838D830FC06C
:1042F00088EC90E09C838B838B819C810197F1F704
:104300009C838B838D819E8101979E838D838D817C
:104310009E81009769F714C06F81788589859A8599
:104320000E944900DC01CB019E838D838D819E819B
:104330009A83898389819A810197F1F79A83898386
:104340008F85988929893A894B895C89BA01A901A5
:104350000E94BF2066960FB6F894DEBF0FBECDBF99
:10436000CF91DF910F9108950F931F93DF93CF9318
:10437000CDB7DEB768970FB6F894DEBF0FBECDBFDE
:104380009C8B8B8B4D8B5E8B6F8B788F1F828BE022
:10439000FE013896DF01982F1D929A95E9F76D89F5
:1043A0007E898F89988D0E94B304DC01CB019E83A6
:1043B0008D838D819E81AA2797FDA095BA2FBC0180
:1043C000CD010E9455049B01AC016D897E898F89C6
:1043D000988D0E94C101DC01CB0189839A83AB8354
:1043E000BC83ADB7BEB718970FB6F894BEBF0FBE6B
:1043F000ADBFEDB7FEB73196CE01089691838083AD
:1044000086E090E09383828384E690E095838483C2
:104410008D819E81978386830E94762E8DB79EB76D
:1044200008960FB6F8949EBF0FBE8DBF03C08F8154
:104430008F5F8F838F81282F30E0CE010896FC019B
:10444000E20FF31F8081882391F78F81282F30E0BE
:10445000CE010896FC01E20FF31F8EE280838F816C
:104460008F5F8F838F81082F10E069817A818B8124
:104470009C8120E030E040E251E40E941F02DC0118
:10448000CB01BC01CD010E944900DC01CB012AE037
:1044900030E040E050E0BC01CD010E941D2EDC0167
:1044A000CB01282F205DCE010896FC01E00FF11F03
:1044B00020838F818F5F8F838F81082F10E0698128
:1044C0007A818B819C8120E030E048EC52E40E94AC
:1044D0001F02DC01CB01BC01CD010E944900DC01BF
:1044E000CB012AE030E040E050E0BC01CD010E9469
:1044F0001D2EDC01CB01282F205DCE010896FC018A
:10450000E00FF11F20838B899C899E01285F3F4F1C
:10451000B9010E94901B68960FB6F894DEBF0FBEDB
:10452000CDBFCF91DF911F910F9108950F93DF932E
:10453000CF93CDB7DEB766970FB6F894DEBF0FBE48
:10454000CDBF988B8F87498B5A8B6B8B7C8B2D8B38
:104550000E8B9D898E89890F8068282F8F85988979
:10456000622F0E941C1B80E090E0ACE0B2E48B87DD
:104570009C87AD87BE876B857C858D859E8520E079
:1045800030E04AEF54E40E941F02DC01CB018F832C
:104590009887A987BA876F81788589859A8520E071
:1045A00030E040E85FE30E94250488232CF481E09A
:1045B00090E09E838D833FC06F81788589859A8541
:1045C00020E03FEF4FE757E40E94C50318164CF573
:1045D0006B857C858D859E8520E030E040E251E44E
:1045E0000E941F02DC01CB01BC01CD010E944900E9
:1045F000DC01CB019E838D830FC088EC90E09C830F
:104600008B838B819C810197F1F79C838B838D81B8
:104610009E8101979E838D838D819E81009769F78E
:1046200014C06F81788589859A850E944900DC01D4
:10463000CB019E838D838D819E819A83898389811D
:104640009A810197F1F79A8389838F8598892989BF
:104650003A894B895C89BA01A9010E94B421669606
:104660000FB6F894DEBF0FBECDBFCF91DF910F9193
:104670000895DF93CF930F92CDB7DEB7198210C0A4
:104680008981882F90E0FC01E250FD4F908181E00C
:10469000692F40E021E00E94BE0F89818F5F8983EE
:1046A0008981843068F3198210C08981882F90E055
:1046B000FC01EE5FFC4F908181E0692F41E021E039
:1046C0000E94BE0F89818F5F89838981843068F35E
:1046D0000F90CF91DF910895DF93CF93CDB7DEB7E1
:1046E00069970FB6F894DEBF0FBECDBFCE0103961B
:1046F0009E8B8D8BE2E2F3E0F88FEF8BF0E1F98F88
:10470000EF89F88D00808F89988D0196988F8F8B17
:10471000ED89FE8900828D899E8901969E8B8D8B05
:10472000998D9150998FE98DEE2351F781E08B8B14
:104730001A8219825EC08981882F90E0FC01EE5FA9
:10474000FC4F908181E0692F40E00E94900D1A8219
:104750003DC08A81882F90E0FC01E250FD4F90819E
:104760009E012D5E3F4F81E0692FA9010E94390E05
:104770008B89882341F50FC08A81882F90E0FC0146
:10478000E250FD4F90819E012D5E3F4F81E0692FE9
:10479000A9010E94390E8B89882371F38A81282F01
:1047A00030E08981482F50E0220F331F220F331F42
:1047B000CE010196820F931F840F951FFC01329644
:1047C00080818C8B1CC08A818F5F8A838A81843030
:1047D00008F4BFCF8981882F90E0FC01EE5FFC4F89
:1047E000908181E0692F41E00E94900D89818F5F67
:1047F00089838981843008F49ECF9FEF9C8B8C89BC
:1048000069960FB6F894DEBF0FBECDBFCF91DF9192
:104810000895DF93CF93CDB7DEB7E7970FB6F8943F
:10482000DEBF0FBECDBF1AAA8FEF8BAB19AA83E0F4
:1048300088AB8FEF8FA71CAA1DAA1EAA1FAA1BA6B2
:104840001CA61DA61EA6CE01C39660E070E00E94C5
:1048500099088BA98F3F09F0CAC00E947C2619AA2B
:10486000AFC00E946C238FA78FA58F3F09F4A8C00B
:104870008FA58A3008F0A4C08CA99DA9AEA9BFA9B4
:104880002AE030E040E050E0BC01CD010E94FE2D66
:104890009B01AC018FA5882F90E0A0E0B0E0820FD3
:1048A000931FA41FB51F8CAB9DABAEABBFAB8FA549
:1048B000282F30E040E050E086E093E0BA01A90103
:1048C0000E94BF2080E090E0A8ECB2E48FA398A7FC
:1048D000A9A7BAA76FA178A589A59AA520E030E07D
:1048E0004AEF54E40E941F02DC01CB018BA39CA37E
:1048F000ADA3BEA36BA17CA18DA19EA120E030E061
:1049000040E85FE30E94250488232CF481E090E0D6
:104910009AA389A33FC06BA17CA18DA19EA120E099
:104920003FEF4FE757E40E94C50318164CF56FA1FF
:1049300078A589A59AA520E030E040E251E40E94E4
:104940001F02DC01CB01BC01CD010E944900DC014A
:10495000CB019AA389A30FC088EC90E098A38F8F16
:104960008F8D98A10197F1F798A38F8F89A19AA1B4
:1049700001979AA389A389A19AA1009769F714C006
:104980006BA17CA18DA19EA10E944900DC01CB01FD
:104990009AA389A389A19AA19E8F8D8F8D8D9E8DBB
:1049A0000197F1F79E8F8D8F89A9282F285F86E0C8
:1049B00093E06AE240E40E94711B89A98F5F89AB92
:1049C00089A9843008F44DCF8CA99DA9AEA9BFA9AF
:1049D000BC01CD0141E050E022E00E94C50881E029
:1049E00060E070E00E9474088FE38AABEDC08BA991
:1049F000813009F0E9C0CE01C49661E070E042E088
:104A00000E942209DDC00E94972619AAADC00E940B
:104A10006C238FA78FA58F3F09F4A6C08FA58A307E
:104A200008F0A2C08BA59CA5ADA5BEA52AE030E0EC
:104A300040E050E0BC01CD010E94FE2D9B01AC0185
:104A40008FA5882F90E0A0E0B0E0820F931FA41FF5
:104A5000B51F8BA79CA7ADA7BEA78FA5282F30E0B9
:104A600040E050E086E093E0BA01A9010E94BF2037
:104A700080E090E0A8ECB2E4898F9A8FAB8FBC8F76
:104A8000698D7A8D8B8D9C8D20E030E04AEF54E467
:104A90000E941F02DC01CB018D8B9E8BAF8BB88FE8
:104AA0006D897E898F89988D20E030E040E85FE352
:104AB0000E94250488232CF481E090E09C8B8B8B52
:104AC0003FC06D897E898F89988D20E03FEF4FE749
:104AD00057E40E94C50318164CF5698D7A8D8B8DAD
:104AE0009C8D20E030E040E251E40E941F02DC0196
:104AF000CB01BC01CD010E944900DC01CB019C8BA4
:104B00008B8B0FC088EC90E09A8B898B89899A896E
:104B10000197F1F79A8B898B8B899C8901979C8BE4
:104B20008B8B8B899C89009769F714C06D897E896E
:104B30008F89988D0E944900DC01CB019C8B8B8B67
:104B40008B899C89988B8F878F8598890197F1F73E
:104B5000988B8F8786E093E06AE240E429A90E945F
:104B6000711B89A98F5F89AB89A9843008F44FCF65
:104B70002CA93DA94EA95FA98BA59CA5ADA5BEA555
:104B8000281739074A075B0719F48FE38AAB1CC063
:104B90002CA93DA94EA95FA98BA59CA5ADA5BEA535
:104BA000281739074A075B0759F01AAA1BA61CA643
:104BB0001DA61EA688A9815088AB88A90E94AF2691
:104BC00088A9882309F01FCF8AA98F3309F48BC0E5
:104BD0008AE093E00E948F1986E093E00E94301CE7
:104BE00086E093E027E630E0B9010E94901B86E062
:104BF00093E026E730E0B90140E420E00E94C91BC1
:104C000080E090E0AAEFB3E48B879C87AD87BE87F6
:104C10006B857C858D859E8520E030E04AEF54E4ED
:104C20000E941F02DC01CB018F839887A987BA8776
:104C30006F81788589859A8520E030E040E85FE3E0
:104C40000E94250488232CF481E090E09E838D83CC
:104C50003FC06F81788589859A8520E03FEF4FE7D7
:104C600057E40E94C50318164CF56B857C858D852D
:104C70009E8520E030E040E251E40E941F02DC010A
:104C8000CB01BC01CD010E944900DC01CB019E8318
:104C90008D830FC088EC90E09C838B838B819C81FB
:104CA0000197F1F79C838B838D819E8101979E8371
:104CB0008D838D819E81009769F78ECF6F81788576
:104CC00089859A850E944900DC01CB019E838D83F2
:104CD0008D819E819A83898389819A810197F1F7D9
:104CE0009A83898379CFE7960FB6F894DEBF0FBE1B
:104CF000CDBFCF91DF910895DF93CF93CDB7DEB7CE
:104D000086E093E00E94301C86E093E025E830E0E6
:104D1000B9010E94901B86E093E020E930E0B901E0
:104D200040E420E00E94C91BCF91DF910895DF93FA
:104D3000CF93CDB7DEB786E093E00E94301C86E0CB
:104D400093E029E930E0B9010E94901B86E093E0EE
:104D500060E440E00E944C1BCF91DF910895DF9307
:104D6000CF93CDB7DEB72F970FB6F894DEBF0FBE47
:104D7000CDBF8F8786E093E00E94301C86E093E0F1
:104D800029EA30E0B9010E94901B86E093E028EB0D
:104D900030E0B90140E420E00E94C91B8F85282F34
:104DA00030E040E050E086E093E0BA01A9010E94C3
:104DB000BF2080E090E0AAE7B4E48B879C87AD87B2
:104DC000BE876B857C858D859E8520E030E04AEF2F
:104DD00054E40E941F02DC01CB018F839887A987CE
:104DE000BA876F81788589859A8520E030E040E830
:104DF0005FE30E94250488232CF481E090E09E83E9
:104E00008D833FC06F81788589859A8520E03FEF4B
:104E10004FE757E40E94C50318164CF56B857C8557
:104E20008D859E8520E030E040E251E40E941F0223
:104E3000DC01CB01BC01CD010E944900DC01CB01AA
:104E40009E838D830FC088EC90E09C838B838B8145
:104E50009C810197F1F79C838B838D819E810197C3
:104E60009E838D838D819E81009769F714C06F8129
:104E7000788589859A850E944900DC01CB019E8353
:104E80008D838D819E819A83898389819A810197FF
:104E9000F1F79A83898386E093E00E94301C2F9675
:104EA0000FB6F894DEBF0FBECDBFCF91DF9108954E
:104EB000DF93CF9300D00F92CDB7DEB78FEF89830A
:104EC0000E94B7270E941C290E9409240E94E827FB
:104ED0008FEF898303C00E946C23898389818F3F70
:104EE000D1F38981282F30E03B832A838A819B81FB
:104EF0008230910579F02A813B812330310581F0A0
:104F00008A819B818130910589F40E942D2A8FEF3F
:104F10008983DCCF80E00E94862A8FEF8983D6CFF9
:104F200082E00E94862A8FEF8983D0CF0E948C284E
:104F30008FEF8983CBCFDF93CF93CDB7DEB784E5F7
:104F400093E00E949A1A80915403882329F489E0FF
:104F500093E00E948F1908C080915403813021F49E
:104F600089E093E00E942419CF91DF910895DF93A7
:104F7000CF93CDB7DEB783E060E041E00E941D0D26
:104F800083E061E041E00E941D0D0E94750782E10F
:104F900093E00E9499098BE093E00E94E6100E9442
:104FA000392380E090E00E94721A89E093E00E9429
:104FB000B6188AE093E00E94B61886E093E00E945B
:104FC000081B8AE193E00E943F0BCF91DF91089587
:104FD000DF93CF93CDB7DEB72E970FB6F894DEBF31
:104FE0000FBECDBF86E093E00E94301C86E093E0C8
:104FF00028EC30E0B9010E94901B80E090E0AAEF1D
:10500000B3E48B879C87AD87BE876B857C858D8558
:105010009E8520E030E04AEF54E40E941F02DC014C
:10502000CB018F839887A987BA876F817885898517
:105030009A8520E030E040E85FE30E942504882361
:105040002CF481E090E09E838D833FC06F81788552
:1050500089859A8520E03FEF4FE757E40E94C5031A
:1050600018164CF56B857C858D859E8520E030E09B
:1050700040E251E40E941F02DC01CB01BC01CD01E2
:105080000E944900DC01CB019E838D830FC088EC18
:1050900090E09C838B838B819C810197F1F79C83AB
:1050A0008B838D819E8101979E838D838D819E81CF
:1050B000009769F714C06F81788589859A850E9469
:1050C0004900DC01CB019E838D838D819E819A8373
:1050D000898389819A810197F1F79A83898386E090
:1050E00093E00E94301C86E093E028ED30E0B901A7
:1050F0000E94901B86E093E028EE30E0B90140E486
:1051000020E00E94C91B2E960FB6F894DEBF0FBE9A
:10511000CDBFCF91DF910895DF93CF93CDB7DEB7A9
:105120002E970FB6F894DEBF0FBECDBF86E093E09A
:105130000E94301C86E093E028EF30E0B9010E9425
:10514000901B80E090E0AAEFB3E48B879C87AD874B
:10515000BE876B857C858D859E8520E030E04AEF9B
:1051600054E40E941F02DC01CB018F839887A9873A
:10517000BA876F81788589859A8520E030E040E89C
:105180005FE30E94250488232CF481E090E09E8355
:105190008D833FC06F81788589859A8520E03FEFB8
:1051A0004FE757E40E94C50318164CF56B857C85C4
:1051B0008D859E8520E030E040E251E40E941F0290
:1051C000DC01CB01BC01CD010E944900DC01CB0117
:1051D0009E838D830FC088EC90E09C838B838B81B2
:1051E0009C810197F1F79C838B838D819E81019730
:1051F0009E838D838D819E81009769F714C06F8196
:10520000788589859A850E944900DC01CB019E83BF
:105210008D838D819E819A83898389819A8101976B
:10522000F1F79A8389832E960FB6F894DEBF0FBEEE
:10523000CDBFCF91DF910895DF93CF93CDB7DEB788
:105240006C970FB6F894DEBF0FBECDBF86E093E03B
:1052500024E031E0B90140E023E00E94C91B80E076
:1052600090E0AAEFB3E4898F9A8FAB8FBC8F698DE2
:105270007A8D8B8D9C8D20E030E04AEF54E40E94C3
:105280001F02DC01CB018D8B9E8BAF8BB88F6D899C
:105290007E898F89988D20E030E040E85FE30E94AE
:1052A000250488232CF481E090E09C8B8B8B3FC0FD
:1052B0006D897E898F89988D20E03FEF4FE757E415
:1052C0000E94C50318164CF5698D7A8D8B8D9C8DC7
:1052D00020E030E040E251E40E941F02DC01CB01FB
:1052E000BC01CD010E944900DC01CB019C8B8B8B62
:1052F0000FC088EC90E09A8B898B89899A890197F5
:10530000F1F79A8B898B8B899C8901979C8B8B8B6E
:105310008B899C89009769F714C06D897E898F8974
:10532000988D0E944900DC01CB019C8B8B8B8B8973
:105330009C89988B8F878F8598890197F1F7988B37
:105340008F8786E093E00E94301C86E093E02FE098
:1053500031E0B90140E023E00E94C91B80E090E009
:10536000AAEFB3E48B879C87AD87BE876B857C856E
:105370008D859E8520E030E04AEF54E40E941F02B4
:10538000DC01CB018F839887A987BA876F817885E5
:1053900089859A8520E030E040E85FE30E9425049B
:1053A00088232CF481E090E09E838D833FC06F8141
:1053B000788589859A8520E03FEF4FE757E40E9482
:1053C000C50318164CF56B857C858D859E8520E080
:1053D00030E040E251E40E941F02DC01CB01BC013D
:1053E000CD010E944900DC01CB019E838D830FC05B
:1053F00088EC90E09C838B838B819C810197F1F7F3
:105400009C838B838D819E8101979E838D838D816B
:105410009E81009769F714C06F81788589859A8588
:105420000E944900DC01CB019E838D838D819E818A
:105430009A83898389819A810197F1F79A83898375
:1054400086E093E00E94301C6C960FB6F894DEBFA5
:105450000FBECDBFCF91DF910895DF93CF9300D0E2
:105460000F92CDB7DEB786E093E00E94301C86E055
:1054700093E027E131E0B9010E94901B86E093E0C0
:1054800027E231E0B90140E420E00E94C91B8FEF20
:10549000898303C00E946C23898389818F3FD1F364
:1054A0008981282F30E03B832A838A819B81813048
:1054B000910531F02A813B812230310521F006C06F
:1054C0000E94412D07C00E94702A04C08FEF89837B
:1054D0000E948C280F900F900F90CF91DF9108952C
:1054E000DF93CF93CDB7DEB780915303882359F470
:1054F00081E0809353038BE093E04BE050E060E069
:1055000070E00E94CF17CF91DF910895DF93CF9382
:1055100000D000D0CDB7DEB78A8386E093E00E944A
:10552000301C86E093E026E331E0B9010E94901B35
:1055300086E093E02CE531E0B90140E420E00E94F0
:10554000C91B8FEF8983A6C00E946C238983898140
:10555000282F30E03C832B838B819C818630910502
:1055600009F461C02B813C81273031050CF58B811A
:105570009C818330910509F447C02B813C81243004
:1055800031055CF48B819C818130910599F12B81EF
:105590003C812230310599F165C08B819C8184303A
:1055A0009105B9F12B813C8125303105B9F15AC003
:1055B0008B819C818B32910509F44BC02B813C81FE
:1055C0002C3231055CF48B819C818730910581F10F
:1055D0002B813C812830310579F144C08B819C813D
:1055E0008D32910569F12B813C812F3F310509F402
:1055F00051C038C08A81865F0E94C5074BC08A812E
:10560000875F0E94C50746C08A818C5E0E94C507DD
:1056100041C08A818D5E0E94C5073CC08A818E5C34
:105620000E94C50737C08A818F5C0E94C50732C0BF
:105630008A810E945D2B2EC08A810E94A72B2AC0DE
:1056400086E093E00E94EC1B86E093E00E94EC1B56
:1056500021C086E093E00E94FD1B86E093E00E945B
:10566000FD1B18C00E948C2886E093E00E94301C2D
:1056700086E093E026E331E0B9010E94901B86E0CA
:1056800093E02CE531E0B90140E420E00E94C91B21
:105690008FEF898389818F3F09F456CF89818B32BF
:1056A00009F452CF89818D3209F44ECF0F900F90BB
:1056B0000F900F90CF91DF910895DF93CF9300D09B
:1056C00000D0CDB7DEB78A8386E093E00E94301C1D
:1056D00086E093E023E831E0B9010E94901B86E068
:1056E00093E02FE831E0B90140E420E00E94C91BBB
:1056F0008FEF89831CC00E946C2389838981282FA6
:1057000030E03C832B838B819C818130910531F08B
:105710002B813C812230310531F009C08A81885DBE
:105720000E94C50704C08A81895D0E94C5078981DE
:105730008F3F09F389818330F0F689818823D9F27C
:105740000F900F900F900F90CF91DF910895DF93FE
:10575000CF93CDB7DEB763970FB6F894DEBF0FBE19
:10576000CDBF898B86E093E00E94301C86E093E0F9
:105770002CE931E0B9010E94901B86E093E025EA14
:1057800031E0B90140E420E00E94C91B8FEF8F8710
:10579000188AA7C00E946C238F878F85282F30E03E
:1057A0003B8B2A8B8A899B898130910539F02A8924
:1057B0003B892230310509F490C093C086E093E024
:1057C0000E94301C86E093E02FEA31E0B9010E948C
:1057D000901B86E093E060E440E00E944C1BCE0109
:1057E00040960E94862C8989845C0E94C50780E0CF
:1057F00090E0A8E4B2E48B879C87AD87BE876B8579
:105800007C858D859E8520E030E04AEF54E40E943F
:105810001F02DC01CB018F839887A987BA876F812C
:10582000788589859A8520E030E040E85FE30E9432
:10583000250488232CF481E090E09E838D833FC073
:105840006F81788589859A8520E03FEF4FE757E49F
:105850000E94C50318164CF56B857C858D859E8549
:1058600020E030E040E251E40E941F02DC01CB0165
:10587000BC01CD010E944900DC01CB019E838D83D8
:105880000FC088EC90E09C838B838B819C81019777
:10589000F1F79C838B838D819E8101979E838D83FD
:1058A0008D819E81009769F714C06F817885898505
:1058B0009A850E944900DC01CB019E838D838D81F6
:1058C0009E819A83898389819A810197F1F79A83CE
:1058D000898388890E94C50704C08989855C0E94E4
:1058E000C5078F858F3F09F455CF8F85833008F02A
:1058F00051CF8F85882309F44DCF63960FB6F89466
:10590000DEBF0FBECDBFCF91DF910895DF93CF9360
:10591000CDB7DEB763970FB6F894DEBF0FBECDBF2D
:105920009B8B8A8B8FEF898B188A1F8628C00E94D9
:105930006C23898B89898F3F11F189898A30F8F42A
:105940008889882F90E09C01220F331FC901880F9E
:10595000991F880F991F820F931F982F8989890F8C
:10596000888B8F858F5F8F878989282F30E040E073
:1059700050E086E093E0BA01A9010E94BF208F8524
:105980008230A8F2EA89FB898889808380E090E0F0
:10599000AAEFB3E48B879C87AD87BE876B857C8538
:1059A0008D859E8520E030E04AEF54E40E941F027E
:1059B000DC01CB018F839887A987BA876F817885AF
:1059C00089859A8520E030E040E85FE30E94250465
:1059D00088232CF481E090E09E838D833FC06F810B
:1059E000788589859A8520E03FEF4FE757E40E944C
:1059F000C50318164CF56B857C858D859E8520E04A
:105A000030E040E251E40E941F02DC01CB01BC0106
:105A1000CD010E944900DC01CB019E838D830FC024
:105A200088EC90E09C838B838B819C810197F1F7BC
:105A30009C838B838D819E8101979E838D838D8135
:105A40009E81009769F714C06F81788589859A8552
:105A50000E944900DC01CB019E838D838D819E8154
:105A60009A83898389819A810197F1F79A8389833F
:105A700063960FB6F894DEBF0FBECDBFCF91DF9116
:105A80000895DF93CF93CDB7DEB780915303813074
:105A900051F4109253038BE093E04BE050E060E050
:105AA00070E00E947C18CF91DF910895DF93CF932F
:105AB000CDB7DEB72E970FB6F894DEBF0FBECDBFC1
:105AC00086E093E02FEB31E0B90140E020E00E9456
:105AD000C91B86E093E02FEC31E0B90140E420E0FF
